:100000000C9466030C9483030C9483030C94830375
:100010000C9483030C9483030C9483030C94830348
:100020000C9483030C9483030C94C6220C949823A1
:100030000C942E1B0C9483030C9483030C94830365
:100040000C9483030C9483030C9483030C94830318
:100050000C9483030C94961B0C9483030C948303DD
:100060000C9483030C9483030C9483030C948303F8
:100070000C9483030C9483030C9483030C948303E8
:100080000C9483030C9483030C9483030C948303D8
:100090000C9483030C9483030C9483030C948303C8
:1000A0000C9483030C9483030C948303DB03DE031F
:1000B000E103E403E703EA03ED0309070E0718076A
:1000C0000C07110716071407720874087F087608D2
:1000D00078087A087C087E088108830885089008DB
:1000E000870889088B088D088F0892080D100D105D
:1000F0003F103F108810A8102D128B12EA108B129F
:100100009711971124128B128B128512A411A4112E
:10011000A411A411A411A411A411A411A411A41137
:10012000A411A411A411A411A411A411B511C211F8
:10013000C911D011DA111C131C132E132E13251301
:100140002E132E132E131C131C132A132E132E13CF
:100150002A1305242C241E252C241E2578249B24B8
:100160001E25F12400256572676F646F785F657ADC
:100170002F613930303739656239616461346264C6
:100180003237313839204020302E362E3237332D59
:1001900031362D676234653462652D646972747915
:1001A000000000F0A129002B000258E100E000004F
:1001B000001E00140004001D00E300E0001F001AF0
:1001C0000016611B00E200025520000800076206CD
:1001D0000028002C0021001500096419000154E2D8
:1001E00000220017000A000500000065000153F717
:1001F0000000002F00000049000153F8000000300B
:10020000000000460023001C000B00110000002924
:1002100061240018000D74100050434B0025000CA1
:10022000000E7236004F002A00260012000F7137B0
:100230000051004C00270013003300380052004EDC
:10024000412D0031782800E500015300002900010C
:100250000001000100010000003A003400340220D7
:1002600002010001003B0038002E002302010001C2
:10027000003C002F0226022F00010001003D00304B
:100280000227023000010001003E0035003802352F
:100290000200000100010001000000010000000157
:1002A000000100010000000100000001003F0034D7
:1002B0000034022402000001004000240021001E3E
:1002C00000270001004100250022001F00620056A7
:1002D000004200260023002000370057004300257D
:1002E00002540031002E00010044004500010001CD
:1002F0000001000000010001000100006200610037
:1003000000010001000100FB000068010001000184
:1003100000F200FA000064F5000100F000F100F9BD
:10032000000100F40001000100F300FC00F60001F0
:10033000000100FF00FE00FD0000000100010001BF
:10034000000000010000000100145C4600000001F4
:1003500000000001000100FF00FE00FD00000001A0
:100360000001004A005000010001004B0001005252
:10037000005100010001004D0001004D004F00013F
:100380000001004A00010001000100010001004ECF
:1003900000005C01000100010001000000010001FB
:1003A000000100010001000000010001001E020127
:1003B0000001000100010001001F02010001000115
:1003C0000001000100200201000100010001000104
:1003D00000210201000100010001000100220201D0
:1003E0000000000100010001000000010000000108
:1003F00000010001000000010000000100010001F7
:10040000002302010000000100010001002402019C
:1004100000010001000100010025020100010001AE
:10042000000100010026020100010001000100019D
:10043000002702010001000100010001000100018C
:10044000000100000000000000000000002A2B282E
:10045000000000000000000000000000000000009C
:1004600029000000002C1E342021222434262725B8
:100470002E362D3738271E1F2021222324252633F0
:1004800033362E37381F0405060708090A0B0C0DF2
:100490000E0F101112131415161718191A1B1C1D04
:1004A0002F3130232D350405060708090A0B0C0DE2
:1004B0000E0F101112131415161718191A1B1C1DE4
:1004C0002F3130354C00000000000000000000001B
:1004D000000000000000000000000000000000001C
:1004E0000000000000000101010101010001010103
:1004F00001000000000000000000000000000001FA
:1005000000010001010101010101010101010101DD
:1005100001010101010101010101010101010101CB
:1005200000000001010000000000000000000000C9
:1005300000000000000000000000000000000000BB
:1005400001010101000403300000001603450072A0
:100550000067006F0044006F007800200045005ADB
:1005600000000016034500720067006F0044006F32
:10057000007800200045005A000000040309040927
:10058000023B00020100A0FA09040000010301017E
:100590000009211101000122400007058103080024
:1005A0000A090401000103000000092111010001F2
:1005B00022C0000705820320000A1201100100007A
:1005C0000008EDFE07130100010203010501090205
:1005D000A10185020901A1000509190129051500DC
:1005E00025019505750181029501750381010501BC
:1005F000093009311581257F950275088106093872
:100600001581257F950175088106050C0A380215AC
:1006100081257F950175088106C0C005010980A16B
:100620000185031601002603001A81002A83007544
:100630001095018100C0050C0901A1018504160176
:1006400000269C021A01002A9C0275109501810067
:10065000C005010906A1018505050719E029E7156F
:1006600000250195087501810205081901290595E4
:10067000057501910295017503910105071900297E
:10068000EF1500250195F075018102C005010906ED
:10069000A101050719E029E7150025019508750155
:1006A0008102950175088101050819012905950543
:1006B000750191029501750391010507190029FF44
:1006C000150026FF00950675088100C011241FBE85
:1006D000CFEFDAE0DEBFCDBF11E0A0E0B1E0E8E8A7
:1006E000FBE402C005900D92AC3BB107D9F723E0C3
:1006F000ACEBB1E001C01D92A234B207E1F70E9459
:10070000EA1F0C94C2250C94000080B38C7080BB4F
:1007100081B3836F81BB089584B1807F84B985B133
:10072000807F85B98AB1837F8AB98BB1837F8BB98A
:100730003E9846980895CF93E82F873090F58091A2
:10074000000190910101892B09F049C0CE2F64E688
:1007500070E080E40E941C059093010180930001E9
:10076000892BD1F464E670E082E10E9473059093D6
:10077000010180930001892B79F481E090E001C0B0
:10078000880FCA95EAF764E670E080950E947305C9
:10079000909301018093000184E690E0CF910C9446
:1007A000C80590E0FC013797E730F105C0F4EA5A3C
:1007B000FF4F0C946625209A289811C0219A2998F9
:1007C0000EC0229A2A980BC0239A2B9808C0529ADE
:1007D0005A9805C0539A5B9802C03E9A4698CF91AA
:1007E0000895089508950C94F203CF93DF930E9427
:1007F0005A0690E090930101809300010E948C03BF
:100800000E948503A1E1B2E02DEB31E0EFE1F2E0DF
:100810004EE04E0F11921D9280E090E0E901C80F6A
:10082000D91F1882019686309105C1F72A5F3F4F84
:100830004E13F0CFDF91CF910C9481070E945A069E
:1008400090E090930101809300010E948C030E942C
:100850008503EFE1F2E08EE08E0F11928E13FDCF53
:100860000895CF93DF93E62FF0E0EF5EFD4F4081D8
:100870004827808386E0689FF0011124E354FE4FEF
:1008800020E030E080E061E070E050E0AAE0B22FCC
:100890009081992319F09150908307C0EB01022EAB
:1008A00001C0CC0F0A94EAF78C2BEA0102C0D5955F
:1008B000C795BA95E2F7C0FDA0832F5F3F4F3196F1
:1008C0002630310521F7DF91CF910895CF93DF9343
:1008D000D82F873008F040C080910001909101012D
:1008E000892B09F042C064E670E080E40E941C0598
:1008F0009093010180930001892B11F0C0E027C083
:1009000064E670E083E10E94730590930101809397
:100910000001892B99F764E670E081E40E941C05D0
:100920009093010180930001892B41F784E690E0C8
:100930000E94A30597FF05C09093010180930001D9
:10094000DDCFC82FC095109201011092000184E6FE
:1009500090E00E94C8050AC09FB1CFB1C07FC69584
:10096000C6959370C92BC09501C0C0E06D2F8C2F28
:100970000E943104282F2095ED2FF0E0E15EFD4F1D
:10098000908192238C23892BDF91CF910895EF9250
:10099000FF920F931F93CF93DF938091000190916B
:1009A0000101892B91F08091BC018F5F8093BC0184
:1009B00081110BC00E945A0690E090930101809330
:1009C0000001892B11F40E94EC058FE1E82E82E0F2
:1009D000F82E06E212E0C0E08C2F0E949B03D7E0C5
:1009E000DC0F8D2F0E949B038C2F0E946604F70161
:1009F00081937F018D2F0E946604F80181938F01FE
:100A00000E948C03CF5FC73039F70E948B0781E0CB
:100A1000DF91CF911F910F91FF90EF900895E82FF4
:100A2000F0E0E15EFD4F8081089508951092B900D5
:100A30008CE08093B8000895EF92FF920F931F937C
:100A4000CF93DF93182FEB011092BC0084EA8093C0
:100A5000BC000E94601B7C019091BC0097FD0EC001
:100A6000CF3F8FEFD807C1F30E94601B8E199F09FB
:100A70008C179D0788F38EEF9FEF2EC09091B900E1
:100A8000987F983041F09091B900987F903119F09B
:100A90008FEF9FEF21C01093BB0084E88093BC00D0
:100AA0000E94601B8C019091BC0097FD0CC0CF3F51
:100AB0008FEFD807C1F30E94601B801B910B8C172E
:100AC0009D0788F3D8CF8091B900887F883111F0D5
:100AD0008034F1F680E090E0DF91CF911F910F918B
:100AE000FF90EF9008950F931F93CF93DF93EB0147
:100AF0008093BB0084E88093BC000E94601B8C0143
:100B00009091BC0097FD0EC0CF3F8FEFD807C1F387
:100B10000E94601B801B910B8C179D0788F38EEF42
:100B20009FEF0CC02091B900287F81E090E028322F
:100B300011F480E090E0919581959109DF91CF913A
:100B40001F910F9108950F931F93CF93DF93EC01A3
:100B500084E88093BC000E94601B8C019091BC00D3
:100B600097FD0EC0CF3F8FEFD807C1F30E94601BE7
:100B7000801B910B8C179D0788F38EEF9FEF03C0AE
:100B80008091BB0090E0DF91CF911F910F9108956C
:100B90000F931F93CF93DF93EC0184E98093BC0004
:100BA0000E94601B8C019091BC0094FF0EC0CF3F4F
:100BB0008FEFD807C1F30E94601B801B910B8C172D
:100BC0009D0788F38EEF9FEF02C080E090E0DF91F9
:100BD000CF911F910F91089556985E9825982D9862
:100BE00026982E9827982F988FEF90E09093890061
:100BF0008093880090938B0080938A0090938D005F
:100C000080938C00259A2D9A2FEF80E792E0215057
:100C100080409040E1F700C00000269A2E9A2FEF06
:100C200080E792E0215080409040E1F700C0000052
:100C3000279A2F9A2FEF80E792E021508040904032
:100C4000E1F700C0000025982D982FEF80E792E093
:100C5000215080409040E1F700C0000026982E9877
:100C60002FEF80E792E0215080409040E1F700C0F4
:100C7000000027982F9856985E9825982D982698CA
:100C80002E9827982F98089589EA8093800089E00C
:100C90008093810024982C983F988AB18F7C8AB9E0
:100CA0006E98479A8BB180638BB9769A0E94EC0557
:100CB0000C94F10380E290E0909301018093000195
:100CC00080912D0281110EC00E94160581E0809353
:100CD0002D022FEF83ED90E3215080409040E1F70B
:100CE00000C0000064E670E080E40E941C05909360
:100CF000010180930001892B09F050C064E670E087
:100D000080E00E9473059093010180930001892B7C
:100D100009F044C064E670E080E00E94730590939F
:100D2000010180930001892BC9F564E670E08FE32F
:100D30000E9473059093010180930001892B71F546
:100D400084E690E00E94C80564E670E080E40E94BA
:100D50001C059093010180930001892BF9F464E64E
:100D600070E08CE00E947305909301018093000174
:100D7000892BA1F464E670E080E00E9473059093F3
:100D8000010180930001892B49F464E670E08FE350
:100D90000E947305909301018093000184E690E026
:100DA0000E94C805809100010895611108C0FC01EE
:100DB0008281882321F086E691E00E947E0780E010
:100DC00090E00895863E9C4541F4FB018281882392
:100DD00029F00E944C1A80E0089581E00895CF9296
:100DE000DF92EF92FF926B017C010E948E19569860
:100DF0005E9825982D9826982E9827982F9890E001
:100E0000FC013197E730F105A8F4E35AFF4F0C9449
:100E10006625259A2D9A0EC0259A2D9A269A2E9AE5
:100E200009C0259A2D9A04C0259A2D9A269A2E9AA1
:100E3000279A2F9AC701B601FF90EF90DF90CF90CD
:100E4000089581E008950C94E206CF93282F30E0B6
:100E5000F901EB5BFB4FC491F901EB53FB4F24917C
:100E6000222359F081EE0E943B0E8C2F0E943B0EF4
:100E70008C2F0E94590F81EE04C08C2F0E943B0ED4
:100E80008C2FCF910C94590F0F931F93CF93DF9317
:100E9000EC01062FFE018491882359F19E012F5FFA
:100EA0003F4F813041F4E901F9011491812F0E94F3
:100EB0003B0E812F0DC0823031F4E901F90184919C
:100EC0000E943B0E0AC0833031F4E901F90184919C
:100ED0000E94590F02C00E9425072196802F882367
:100EE000C9F2EFE9FFE03197F1F700C0000081504F
:100EF000F6CFDF91CF911F910F91089560E00C9490
:100F000044070E94DE19811102C00E944C1A0E94FF
:100F1000DF0B0C9444060C94F303282F2F7041F040
:100F2000822F90E02A3010F44D9608950697089588
:100F300087E290E0089508950C949B070C949C0719
:100F400008950E940C130E94A0072FEF84E39CE0F9
:100F5000215080409040E1F700C000000C94BC1B81
:100F6000FF920F931F93CF93DF938C01FC01C081FD
:100F7000D18180915902811113C08281882349F067
:100F8000CE010E944218F82E682FCE010E94E5176C
:100F900004C0CE010E941518F82EBE018F2D04C08A
:100FA000CE010E944218BE010E944909EC01B8011D
:100FB0000E942307882309F464C1B801CE010E946E
:100FC0005A0C882309F45DC1C63DFCE5DF0761F5D5
:100FD000F8018281882351F0109233020E94601B35
:100FE0009093300280932F0282E03BC00E94C5188C
:100FF00085FF05C081E080933302809334028091A5
:10100000330281110FC080912F02909130020E9413
:101010006C1B883C910530F486E20E943B0E86E210
:101020000E94590F82E02FC0C73D8CE5D80770F1B0
:10103000CB3D8CE5D80709F4D6C008F0DBC0C73D2E
:10104000FCE5DF0709F0F4C0F8018281882361F034
:10105000109234020E94601B9093320280933102FE
:1010600080E20E94C90F0DC10E94C51881FF05C012
:1010700081E080933302809334028091340288238C
:1010800009F4C5C080E20E94D00FFBC0C531ECE579
:10109000DE0708F07EC0C230FCE5DF0708F452C06E
:1010A000F8018281882309F459C00E94DE19811158
:1010B00002C00E944C1A0E94F11990E090933403F0
:1010C00080933303FE01E350FC45E231F10530F437
:1010D000EC59FF4F809133030C94662580913303C4
:1010E000816027C0826025C0846023C0806121C0E8
:1010F00080621FC080641DC080681BC084608860DF
:1011000018C08E7F16C08D7F14C08B7F12C08F7E5B
:1011100010C08F7D0EC08F7B0CC08F770AC08B7F75
:10112000877F07C087FB222720F991E0922790FB59
:1011300087F980933303809133030E94F5190E944D
:101140000C139FC0C1158CE5D80781F0C130DC4578
:10115000A9F081E08093330280933402C801DF91CB
:10116000CF911F910F91FF900C942107F80182817C
:10117000882309F486C00E94A10783C0F8018281F8
:10118000882309F47EC08091F90281608093F9027E
:1011900078C0C631DC45E9F60E94C518282FF80151
:1011A00082814091020150910301882379F02A7ACB
:1011B00091E009F490E090932E02911102C069E24F
:1011C00001C065E3CA010E94B31A0AC080912E02D1
:1011D000811102C069E201C065E3CA010E94BE1A22
:1011E0000E942A194EC0F8018281882309F449C05F
:1011F00080E00AC0CC3DECE5DE07D1F5F801828144
:10120000882309F43EC082E00E9489203AC0809180
:101210003102909132020E946C1B883C910508F0CB
:1012200031CF87E20E943B0E87E20E94590F2ACFFE
:10123000C83DDC4509F08DCFF8018281811108CFCE
:101240008091340281111ECF80913102909132023F
:101250000E946C1B883C910508F014CF80E20E942C
:10126000D00F88E20E943B0E88E20E94590F09C00D
:10127000CD3DDC4509F06DCFF801828181110E94DE
:101280004C1A80E0DF91CF911F910F91FF9008954C
:10129000089596E0799FF001112494E5899FE00D6F
:1012A000F11D1124E60FF11DEE0FFF1FEB55FE4F50
:1012B000859194910895880F991FFC01EF55FE4F79
:1012C000859194910895CF93DF930E9449090E94DC
:1012D000280BEC01811520E59207F0F5811530E42B
:1012E000930708F029C1883E910500F5803E9105DD
:1012F00008F0AAC1883A910570F4853A910508F082
:10130000A4C08130910509F49FC108F450C104972D
:1013100008F09AC14CC18F3B910508F4A1C0803CF4
:10132000910508F444C1805C9109F9C0811540E23F
:10133000940758F4C11581E0D80708F085C1C03F73
:10134000D10508F434C1D0657FC1811520E392072F
:1013500008F0E9C09F70E3C0811535E5930708F0F8
:1013600044C0811544E5940708F0FDC0C11582E52D
:10137000D80708F5C11521E5D20708F0E0C08C2F89
:10138000837021E030E002C0220F331F8A95E2F71C
:101390003C68CE0174E0969587957A95E1F7837065
:1013A000382BCF70C695C69540E2C49FE00111244A
:1013B000C22BD32B49C12C2F26952695CE018370A5
:1013C0009927C115D34508F0BFC040E2249F900182
:1013D0001124C1E0D0E002C0CC0FDD1F8A95E2F7F6
:1013E0002C2B3D2BE901DC682FC181154AE59407C0
:1013F000A0F4C11589E5D80708F0C4C0C11526E5D9
:10140000D20708F4B5C0C11538E5D30708F4CFC03A
:10141000DC2FCC27C06FD06A17C181159B4508F41B
:10142000C6C0C1158CE5D80708F4BEC0CE019056E1
:101430008115904208F0BBC08D2F8F710E94A50BC3
:10144000DD27D0628F71D82BFFC0853A910509F452
:10145000B1C0863A910509F0B0C0C2E8D0E4F4C04A
:10146000883A910509F4ACC0893A910509F4ABC0FA
:101470008A3A910509F4AAC08B3A910509F4A9C0EA
:101480008C3A910509F4A8C08B3B910509F4A7C0DB
:101490008C3B910509F4A6C08D3A910509F4A5C0CD
:1014A000803B910509F4A4C08E3A910509F4A3C0CC
:1014B0008F3A910509F4A2C0813B910509F4A1C0BE
:1014C000823B910509F4A0C0833B910509F49FC0BC
:1014D000843B910509F49EC0853B910509F49DC0AC
:1014E000863B910509F49CC0873B910509F49BC09C
:1014F000883B910509F49AC0893B910509F499C08C
:101500008D3B910509F498C08E3B910509F497C075
:101510008A3B910509F496C0C0E0D4E495C00E94CE
:101520005B09EC0191C09927D3FF03C0EC01D86C93
:101530008BC0EC01D06C88C0DF70D06A85C0DC2F16
:10154000CC27C16FD06A80C040E2249F9001112453
:10155000C1E0D0E002C0CC0FDD1F8A95E2F7C22BBC
:10156000D32BDA6871C0D82FCC27C46FD06A6CC077
:101570008C2F0E94A50B8F71C82FD0E0DC2FCC27B9
:10158000D06262C08C2F8F700E94A50B94E0D6951C
:10159000C7959A95E1F7CF70D0E0DC2FCC27D06AC1
:1015A0008F70806EC82B50C0DD27D0664DC0C0E064
:1015B000D0E04AC0C1E8D0E447C0C3E8D0E444C0AA
:1015C000C2EED4E441C0C9EED4E43EC0CAEED4E4D5
:1015D0003BC0C5EBD4E438C0C6EBD4E435C0C3EBA4
:1015E000D4E432C0C4EBD4E42FC0C7EBD4E42CC0A5
:1015F000CCECD4E429C0CDECD4E426C0C3E8D5E4D7
:1016000023C0CAE8D5E420C0C2E9D5E41DC0C4E9BE
:10161000D5E41AC0C1E2D6E417C0C3E2D6E414C0D0
:10162000C4E2D6E411C0C5E2D6E40EC0C6E2D6E4F8
:101630000BC0C7E2D6E408C0CFE6D4E405C0C0E7DB
:10164000D4E402C0CAE2D6E4CE01DF91CF9108957E
:101650008238910549F1B0F48133910509F458C0FD
:1016600048F48932910509F44EC08A32910509F493
:1016700054C008958533910509F440C0893391051C
:1016800099F00895833E910529F138F4803E910543
:1016900091F0823E9105A1F00895863E9105F9F002
:1016A000873E910531F108952091330320FD3AC022
:1016B00021FD38C008958091330380FD35C032C0CC
:1016C0008091330382FF32C08091330384FD30C0A8
:1016D00083EE39C08091330382FD28C0F5CF80911D
:1016E000330383FF27C08091330384FD21C087EE3D
:1016F0002AC08091330383FD1DC0F5CF8091330351
:1017000085FD1AC01BC08091330385FD17C014C02E
:101710008091330386FD14C015C08091330386FD8C
:1017200011C00EC080EE0FC089E30DC082EE0BC069
:1017300080E009C086EE07C089E205C085E303C0EA
:101740008AE201C081E390E008959091330392FF13
:101750000DC0282F2871283019F4877F846006C0B7
:10176000282F2471243011F48B7F886093FF0DC0E3
:10177000282F2871283119F4877E846106C0282F0C
:101780002471243111F48B7E886194FD877E089545
:10179000CF93DF93813020E8920768F0FB0122812C
:1017A000222349F0EC010E94F50BCE019F770E94A5
:1017B0003D0C0E942A0C81E0DF91CF9108958CE0CE
:1017C00090E00E94802590E0A0E0B0E080932903A3
:1017D00090932A03A0932B03B0932C030895609158
:1017E00029038CE090E00C948E250E94C51880930C
:1017F00035020E94D81880912903813071F048F099
:101800008230D9F08430F9F486EE0E94C10F88E16D
:1018100018C082EE0E943B0E16C080EE0E943B0E66
:1018200081EE0E943B0E88E10E94C10F81EE0E9472
:10183000590F80EE0E94590F06C082EE0E943B0EA7
:1018400087E50E94C10F8FE39CE90197F1F700C083
:101850000000089580912903813021F038F0823012
:1018600029F007C08CE20E94C10F03C082EE0E94E3
:10187000590F809135020C94D5180F931F93CF9375
:10188000DF938C01CCE0D0E0C8010C2E02C096950D
:1018900087950A94E2F78F700E948D070E94C10F0E
:1018A0002497CC3F8FEFD80779F7DF91CF911F9125
:1018B0000F9108950F931F93CF93DF93EC018B014A
:1018C000FB018281882319F1C23EFCE5DF07C1F0EC
:1018D00050F4C03EECE5DE0781F0C13EFCE5DF07D9
:1018E000B1F481E010C0C33E8CE5D80759F0C43E86
:1018F000ECE5DE0761F484E006C01092290305C020
:1019000082E001C083E0809329030E94EF0BB801BD
:10191000CE01DF91CF911F910F910C94C80B909342
:101920003B0280933A020895E0913A02F0913B0223
:10193000309721F00190F081E02D099480E0089526
:10194000E0913A02F0913B02309799F02091130117
:10195000222359F02091330327FF07C0DC012C918B
:1019600011962C93119725E02C930280F381E02DA2
:1019700009940895E0913A02F0913B02309739F0D2
:1019800022E0DC012C930480F581E02D0994089578
:1019900020913802309139028217930771F09093A9
:1019A000390280933802E0913A02F0913B0230977D
:1019B00021F00680F781E02D0994089520913602E8
:1019C000309137028217930771F09093370280931A
:1019D0003602E0913A02F0913B02309721F0008408
:1019E000F185E02D0994089585B7806885BF85B796
:1019F000806885BF089508950E94F40C0C94FB0C38
:101A000081E008950E94571B0E94F5030C94EE1B81
:101A1000CF92DF92EF92FF920F931F93CF93DF93BA
:101A2000CDB7DEB72B970FB6F894DEBF0FBECDBF94
:101A30000E94C7040E94000D811111C08FEF89839D
:101A40008A831B820E94601B8160782F9D838C8318
:101A500049815A816B818D810E94EC0D56C08DE3C6
:101A6000C82E82E0D82E00E010E0E02E802F0E94E9
:101A70000F05F60141916F01F42EF82631F40F5F46
:101A80001F4F0E30110589F7D9CF9091F90291FFC0
:101A900004C08B870E9415058B8520E030E04F2D18
:101AA00050E0922FBA01022E02C0759567950A94F4
:101AB000E2F760FF24C02E83EF8221E030E069016D
:101AC00002C0CC0CDD1C9A95E2F790E08C219D21A0
:101AD000892B09F420E028870E94601B8160782F01
:101AE0009A8789874E815F8168858A850E94EC0D7F
:101AF000F801E35CFD4F8081C826C08206C02F5FDD
:101B00003F4F2630310569F6BACF0E94811D1091F2
:101B10003C020E94940C1817A1F00E94940C809330
:101B20003C022B960FB6F894DEBF0FBECDBFDF91FF
:101B3000CF911F910F91FF90EF90DF90CF900C9479
:101B40009E072B960FB6F894DEBF0FBECDBFDF9178
:101B5000CF911F910F91FF90EF90DF90CF9008955C
:101B6000DC0111962C9111978C91682F70E041E067
:101B700050E001C0440F8A95EAF712968C911297B3
:101B800030E0882329F080915B028823E9F006C0C9
:101B9000F901E55BFD4F90819423B1F086E0829FCF
:101BA000F001839FF00D1124E60FF71FEE0FFF1FCA
:101BB000EC5EFE4F808191818D939C93F901E55BF2
:101BC000FD4F8081482B06C0F901E55BFD4F409534
:101BD0008081482340830895CF93DF93CDB7DEB74C
:101BE0002B970FB6F894DEBF0FBECDBF942F4F8357
:101BF000252F588769877A878B874A855B85452B90
:101C000021F02F3F09F59F3FF9F4DE01119686E0A0
:101C1000FD0111928A95E9F785E0FE013796019062
:101C20000D928A95E1F749815A816B817C818D8182
:101C30009E810E94B6152B960FB6F894DEBF0FBE9C
:101C4000CDBFDF91CF910895CE0107960E94B00DD0
:101C5000DCCFFC01808191810E94831892959F7056
:101C6000963041F480915B0291E0892780935B027A
:101C700090935A020895882309F41AC18238C1F456
:101C80000E94940C81FD14C169E38091020190913E
:101C900003010E94B31A0E942A192FEF81EE94E0EB
:101CA000215080409040E1F700C0000069E319C076
:101CB0008338F9F40E94940C80FDFAC063E58091AA
:101CC0000201909103010E94B31A0E942A192FEF7A
:101CD00081EE94E0215080409040E1F700C0000088
:101CE00063E580910201909103010E94BE1A0C9459
:101CF0002A198438C1F40E94940C82FDD9C067E48B
:101D000080910201909103010E94B31A0E942A1946
:101D10002FEF81EE94E0215080409040E1F700C029
:101D2000000067E4DECF9CEF980F913A40F4682FF3
:101D300080910201909103010E94B31AD8CF90E2E2
:101D4000980F983050F4877091E001C0990F8A95F0
:101D5000EAF7892F0E94C818CACF9BE5980F9330E5
:101D600070F4853A29F0863A31F083E890E005C0B6
:101D700081E890E002C082E890E00C94C80C98E5FD
:101D8000980F973108F08EC0883A09F445C0893A17
:101D900009F445C08A3A09F445C08B3A09F445C0B4
:101DA0008C3A09F445C08B3B09F445C08C3B09F4DF
:101DB00045C08D3A09F445C0803B09F445C08E3AD0
:101DC00009F445C08F3A09F445C0813B09F445C088
:101DD000823B09F445C0833B09F445C0843B09F4C8
:101DE00045C0853B09F445C0863B09F445C0873BA7
:101DF00009F445C0883B09F445C0893B09F445C056
:101E00008D3B09F445C08E3B09F445C08A3B09F47B
:101E100045C080E090E044C082EE90E041C089EE91
:101E200090E03EC08AEE90E03BC085EB90E038C089
:101E300086EB90E035C083EB90E032C084EB90E01D
:101E40002FC087EB90E02CC08CEC90E029C08DEC8B
:101E500090E026C083E891E023C08AE891E020C0AA
:101E600082E991E01DC084E991E01AC081E292E02C
:101E700017C083E292E014C084E292E011C085E2D0
:101E800092E00EC086E292E00BC087E292E008C0CA
:101E90008FE690E005C080E790E002C08AE292E021
:101EA0000C94DE0C803F20F00E94891C0C94761D5F
:101EB0000895882309F464C0823879F40E94940C50
:101EC00081FF5EC069E380910201909103010E944D
:101ED000B31A0E942A1969E310C08338B1F40E9432
:101EE000940C80FF4DC063E5809102019091030145
:101EF0000E94B31A0E942A1963E580910201909111
:101F000003010E94BE1A0C942A19843879F40E94A5
:101F1000940C82FF35C067E4809102019091030127
:101F20000E94B31A0E942A1967E4E7CF9CEF980F2A
:101F3000913A10F4682FE1CF90E2980F983050F466
:101F4000877091E001C0990F8A95EAF7892F0E9466
:101F5000CE18D9CF9BE5980F933020F480E090E025
:101F60000C94C80C98E5980F973120F480E090E02D
:101F70000C94DE0C803F20F00E94F11C0C94761D26
:101F80000895CF93C82F0E943B0E8C2FCF910C94B5
:101F9000590F882321F00E94C8180C942A1908951B
:101FA000882321F00E94CE180C942A1908954F928C
:101FB0005F926F927F92BF92CF92DF92EF92FF92E9
:101FC0000F931F93CF93DF937C01D62FC72FFC0174
:101FD000058102950F70128111110E94E8180E946C
:101FE000BE18882379F0112369F080E28D0F8830C4
:101FF00048F082E00E9475190E94BE1891E0B82E48
:10200000B92601C0B12CCC2EC2948FE0C822D12CAD
:10201000F601EA58FF4F0C9466258C2F807FCF7015
:10202000882311F0C295C07F112399F0CC2309F4C5
:10203000F5C180E28D0F883010F0D11104C08C2FD3
:102040000E94C81803C08C2F0E94DB180E942A1916
:10205000E5C18D2F0E94590FCC2309F45CC280E2A8
:102060008D0F883010F0D11104C08C2F0E94CE1833
:1020700003C08C2F0E94E1180E942A194CC28C2F99
:10208000807FCF70803211F0C295C07FDD2319F0C0
:10209000D13059F133C01123B1F0002381F0013068
:1020A00031F40E94FB188C2B0E94171934C20230A5
:1020B00031F40E9420198C2F0E94011923C00E9424
:1020C000FB188C2B49C1002369F0013041F40E94B8
:1020D000C5188C2309F41FC20E940A1903C00230DC
:1020E00009F419C20E94201911C0112321F00230F5
:1020F00008F011C207C001110EC208C0112321F05F
:1021000001118CC18C2F28C101119AC18C2F2AC1B9
:102110008C2F86958695837090E0009719F0019733
:1021200061F0F9C1112321F08D2F9C2F937002C013
:1021300080E090E00E94C80CFEC1112321F08D2F99
:102140009C2F937002C080E090E00E94DE0CF3C1EF
:102150001123F9F0D53F51F0D63F71F0D43FA9F4E7
:1021600080912D0390912E0381600BC080912D03EF
:1021700090912E03826005C080912D0390912E03D3
:10218000846090932E0380932D038D2F0E94891CD1
:102190001EC0D53F51F0D63F71F0D43FA9F48091D5
:1021A0002D0390912E038E7F0BC080912D03909173
:1021B0002E038D7F05C080912D0390912E038B7F80
:1021C00090932E0380932D038D2F0E94F11C0E946B
:1021D000761DB1C18C2F837009F050C01111A7C1B9
:1021E0008D2F829586958770880F880F9D2F9F7001
:1021F000492E512C612C712C082E04C0440C551C06
:10220000661C771C0A94D2F7D4FF14C00FE010E0CC
:1022100020E030E0B901A80104C0440F551F661F3B
:10222000771F8A95D2F7CB01BA016095709580959A
:10223000909503C060E070E0CB01C695C695C37071
:10224000D0E0C230D10561F0C330D10581F06429FE
:10225000752986299729219771F00E94FB1667C17D
:1022600064297529862997290E940D1760C10E944B
:10227000FB16C301B2010E94E91659C1112319F0DE
:102280008C2F817001C08695882309F450C18D2F51
:10229000829586958770880F880F9D2F9F70492E95
:1022A000512C612C712C082E04C0440C551C661C4A
:1022B000771C0A94D2F7D4FF14C00FE010E020E09E
:1022C00030E0B901A80104C0440F551F661F771FF5
:1022D0008A95D2F7CB01BA0160957095809590955B
:1022E00003C060E070E0CB01C695C695C3704C2F6B
:1022F00050E04230510569F04330510589F06429BE
:102300007529862997294130510571F00E94C0171F
:102310000EC164297529862997290E94D21707C101
:102320000E94C017C301B2010E94AE1700C18D2FD9
:1023300090E0FC01E05EF109E531F10508F069C0CB
:10234000EA57FF4F0C946625DF708C2F8F71112395
:1023500031F00E9447178D2F0E94C90FDCC00E94E8
:1023600068178D2F0E94D00FD6C0112339F00111AC
:10237000D2C08C2F8F710E948D17CDC0023008F013
:10238000CAC0F7CF112339F08C2F8F710E944717E5
:10239000C2C01123C9F38C2F8F710E946817BBC074
:1023A000112329F08C2F8F710E943217B4C00E9424
:1023B0002D17B1C01123C9F00E94B1180E94CE1888
:1023C0000E94BA18843039F40E9470198C2F8F71D2
:1023D0000E946817D0C0023008F0CDC0CF718C2F9A
:1023E0000E94471763E08C2F0DC00E94B1180E9415
:1023F000C818023050F00E9470190E940A1964E057
:102400008C2F8F710E946019B6C081E00E947519EF
:10241000B2C0112339F0002309F4B6CF8D2F0E94EA
:102420003B0E79C0002309F4B6CFD93349F45FEFEE
:1024300067EE73E0515060407040E1F700C000006B
:102440008D2F0E94590F67C04C2F4F706D2FC70101
:102450000E94D5060E945A166EC0D23FB1F028F4F1
:10246000D03F49F0D13FF9F028C0D43FB9F058F03F
:10247000D53F71F022C0112309F447C090915B024F
:1024800081E0892708C081E0182710935B023DC0D6
:1024900011113BC081E080935B0237C0111135C040
:1024A00010925B0232C0112329F080915A028823D6
:1024B00029F329C0002311F328C080915A02002378
:1024C000C1F0882341F090915B0281E089278093DD
:1024D0005B0210925A028D2F112319F00E943B0EBD
:1024E00014C00E94590F86E0F70111928A95E9F70E
:1024F0000CC0882351F0111108C090915B0281E05B
:10250000892780935B0210925A024C2F4F706D2FD7
:10251000C7010E944809F8E0CF16D10441F05CF0F1
:102520004AE0C41AD10852E0C516D10420F40E9432
:10253000940C0E949E07BB2001F10E94BA1880FDF6
:102540001CC0F70112820E94B4180E944717C701ED
:102550000E94CB120E94B418DF91CF911F910F916E
:10256000FF90EF90DF90CF90BF907F906F905F9043
:102570004F900C946817B12CDACFDF91CF911F9157
:102580000F91FF90EF90DF90CF90BF907F906F9072
:102590005F904F9008950F931F93CF93DF93EC01BB
:1025A000888199812B813C81232BB9F09F3F11F4C5
:1025B0008F3F99F0CE010E94B007882371F06881A7
:1025C00079818A810E948E188C010E94E4170E94F2
:1025D000E616B801CE010E94D70FDF91CF911F916F
:1025E0000F9108950E94E8180E94F8180E942A1975
:1025F0000E941C1E0E94761D80E090E00E94C80C84
:1026000080E090E00C94DE0C809102019091030137
:102610000E94C91A0C94F2120E94D8180C94041348
:10262000E92FE295EF70F0E03297EE30F105B0F46B
:10263000E556FF4F0C946625803F91F018F4803EDC
:1026400068F40EC0843F51F40BC0803E48F0813FD7
:1026500029F406C093FB882780F9089580E0089547
:1026600081E008950E9483180E9410130895CF936B
:10267000DF9300D000D01F92CDB7DEB70F900F9040
:102680000F900F900F90DF91CF910895CF93DF932C
:1026900000D000D000D0CDB7DEB726960FB6F894A4
:1026A000DEBF0FBECDBFDF91CF9108951F93CF93B3
:1026B000DF93C0915C0216E080915D02C81799F02B
:1026C000D0E01C9FF0011D9FF00D1124E25AFD4F38
:1026D0004081518162817381848195810E9446137A
:1026E0002196C770E9CFDF91CF911F910895409156
:1026F0008E0250918F0260919002709191028091B0
:102700009202909193020C944613809193028295C9
:102710008F7009F054C080919002882309F44FC053
:1027200080915C02A0915D0260918E0270918F0297
:102730004091910250919202B6E08A1709F43FC08D
:1027400090E041155105C1F17F3F11F46F3FA1F1B8
:10275000B89FF001B99FF00D1124E25AFD4F21817D
:1027600072132AC02081621327C02281211124C044
:10277000238134812417350710F421503109241B9B
:10278000350B283C3105C0F4209193022F70206155
:102790002093930226E0289FF001299FF00D112439
:1027A000ED59FD4F80818F70806180838EE892E0CB
:1027B0000E94CB120C94561301968770BECF0895D9
:1027C000CF92DF92EF92FF920F931F93CF93DF93FD
:1027D000CDB7DEB762970FB6F894DEBF0FBECDBFA0
:1027E0008C0185E0F801DE011D9601900D928A951D
:1027F000E1F7D8014C9111965C91119712966C916A
:1028000012971396CD90DC90149730918E027091B0
:102810008F028091910290919202009709F46BC10E
:102820007F3F19F43F3F09F466C1E0909002EE202B
:1028300009F4C0C020919302C816D90628F0F60109
:10284000E81BF90BCF0104C0809590958C0D9D1D60
:10285000FF24F394883C910578F0F12C207F09F057
:10286000C6C07C2DD98AC88A89890E9437138EE810
:1028700092E00E94CB12B1C0822F807F09F046C047
:10288000751314C0341312C0611110C02F70206171
:10289000209393020E9477138EE892E00E94CB125D
:1028A00080919302D80115968C932EC0CD2819F1F2
:1028B0005F3F11F44F3FF9F0F62E61111CC080917B
:1028C0005C0220915D0236E0821709F45AC090E064
:1028D000389FF001399FF00D1124E25AFD4F7181AC
:1028E000571306C07081471303C07281711103C072
:1028F00001968770E9CFF62E662309F427C18091EF
:102900009302816080939302F12C20C1751308C05B
:10291000341306C0611104C080919302D801C3C072
:102920004D875E878D859E856A8B0E9432136A89EA
:102930008823E1F16623D1F120919302822F8295C1
:102940008F7090E0029774F080918E0290918F02C8
:1029500098878F831986DB86CA862C87CE010796D7
:102960000E94CB1286E0F801AEE8B2E001900D9231
:102970008A95E1F70E9485130E947713FF24F39450
:10298000E5C04D875E878D859E850E948318292F1F
:1029900022952F7030E0223031050CF0CBC09F70B3
:1029A00009F0C5C0805E883008F4D0C0C8010E941C
:1029B000CB12E4CFC816D90608F453C0F601E81BC1
:1029C000F90BCF01883C910508F450C0F12C7C2D07
:1029D000D98AC88A89890E943713EEE8F2E086E036
:1029E000DF011D928A95E9F70E947713AFC0751336
:1029F00014C0341312C0611110C080919302F80109
:102A00008583C8010E94CB1286E0EEE8F2E0DF0188
:102A10001D928A95E9F7FE2C99C04D875E878D85BA
:102A20009E856A8B0E9432136A89882309F4BECF7F
:102A3000662309F4BBCF20919302822F82958F7079
:102A400090E002970CF48ECF80918E0290918F02CD
:102A50009A8389831B82DD82CC822E83CE010196EC
:102A60007FCF809590958C0D9D1DACCFF62E662363
:102A700009F49CCF75132EC034132CC020919302FF
:102A800020FD1FC0822F82958F70D9F0D801159636
:102A90002C9315978F3049F08F5F982F9295907FE8
:102AA000822F8F70892B15968C93C8010E94CB12B0
:102AB00086E0F801AEE8B2E001900D928A95E1F768
:102AC00093CF86E0F801AEE8B2E001900D928A95CE
:102AD000E1F73CC04D875E878D859E850E9432134D
:102AE000811140CF80919302816080939302C8014D
:102AF0000E94CB122BC0662309F458CF4D875E8706
:102B00008D859E850E943213F82E882309F44ECFBE
:102B100086E0F801AEE8B2E001900D928A95E1F707
:102B20008EE892E00E94290E0E9485135DCF8111EC
:102B300039CF0CC0243031050CF038CF9F7009F428
:102B400031CFF8019581907F09F02CCF8F2D6296BF
:102B50000FB6F894DEBF0FBECDBFDF91CF911F91AE
:102B60000F91FF90EF90DF90CF9008951F93CF9338
:102B7000DF93CDB7DEB72C970FB6F894DEBF0FBE4C
:102B8000CDBF4F83588769877A878B879C87CE0113
:102B900007960E94E013882369F08F8198852A8523
:102BA0003B85232BF1F19F3F09F063C08F3F09F074
:102BB00060C037C086E0FE013796DE0111960190B5
:102BC0000D928A95E1F76F817885EA85FB853097CC
:102BD00041F17F3F11F46F3F21F120915D0230E020
:102BE000C90101968770992740915C0250E08417D3
:102BF000950709F447C069837A83FD83EC8396E0E7
:102C0000929FD001939FB00D1124A25ABD4FFE0197
:102C1000319601900D929A95E1F780935D020E94A2
:102C2000561316E080915C0290915D028917C1F104
:102C3000189FC0011124825A9D4F0E94E0138823DF
:102C400079F1E0915C021E9FF0011124E25AFD4FE0
:102C50004081518162817381848195810E944613F4
:102C600080915C0290E001968770992780935C02C6
:102C7000D9CF4F81588569857A858B859C850E943F
:102C80004613CFCF0E940C1310925D0210925C028B
:102C9000EEE8F2E086E0DF011D928A95E9F7C1CF08
:102CA0002C960FB6F894DEBF0FBECDBFDF91CF914B
:102CB0001F910895EF92FF920F931F93CF93DF938D
:102CC0008C01892B09F46CC0F12CEE24E394E8010B
:102CD0002196F8018491843740F4843008F051C083
:102CE000813081F0823019F15BC0853709F444C02E
:102CF000A8F19CE7980F903708F052C08F770E9498
:102D0000590F41C00E5F1F4FFE01C49180E28C0F2E
:102D1000883048F4C7708E2D01C0880FCA95EAF735
:102D20000E94EB1814C08C2F0E943B0E2DC00E5F2A
:102D30001F4FFE01C49180E28C0F883058F4C77099
:102D40008E2D01C0880FCA95EAF70E94F1180E94E3
:102D50002A191AC08C2F0E94590F16C00E5F1F4FE0
:102D6000FE01C491CC2381F08FE99FE00197F1F738
:102D700000C00000C150F6CF0E5F1F4FFE01F4905F
:102D800003C00E943B0E8E018F2D882309F49FCF34
:102D9000EFE9FFE03197F1F700C000008150F5CF77
:102DA000DF91CF911F910F91FF90EF9008950895BB
:102DB0000C94D7160E94D8166093CF027093D0025D
:102DC0008093D1029093D2020C94F21208950C9445
:102DD000DA160F931F930091CF021091D002209129
:102DE000D1023091D202602B712B822B932B1F9139
:102DF0000F910C94DA160F931F930091CF0210914C
:102E0000D0022091D1023091D2026023712382231B
:102E100093231F910F910C94DA160F931F93009137
:102E2000CF021091D0022091D1023091D2026027BE
:102E30007127822793271F910F910C94DA160C9417
:102E4000EF060E941F176093CB027093CC02809311
:102E5000CD029093CE020C94F21260E070E0CB01B0
:102E60000C9421170F931F9341E050E060E070E055
:102E70008A019B0104C0000F111F221F331F8A9576
:102E8000D2F7C901B8011F910F910C9421170F932C
:102E90001F9341E050E060E070E004C0440F551F14
:102EA000661F771F8A95D2F78091CB029091CC0252
:102EB000A091CD02B091CE028A019B01082B192B63
:102EC0002A2B3B2BC901B8011F910F910C9421179C
:102ED0000F931F9341E050E060E070E004C0440FA6
:102EE000551F661F771F8A95D2F7409550956095BC
:102EF00070958091CB029091CC02A091CD02B091BF
:102F0000CE028A019B01082319232A233B23C901EE
:102F1000B8011F910F910C9421170F931F9341E05B
:102F200050E060E070E004C0440F551F661F771F3B
:102F30008A95D2F78091CB029091CC02A091CD02DC
:102F4000B091CE028A019B01082719272A273B2727
:102F5000C901B8011F910F910C9421170F931F9372
:102F60000091CB021091CC022091CD023091CE0283
:102F7000602B712B822B932B1F910F910C94211797
:102F80000F931F930091CB021091CC022091CD02A0
:102F90003091CE0260237123822393231F910F91DE
:102FA0000C9421170F931F930091CB021091CC0228
:102FB0002091CD023091CE0260277127822793277E
:102FC0001F910F910C9421170895292F220F920F12
:102FD000990F890FA82FA695A695A695877051E001
:102FE00001C0550F8A95EAF785E0A89FD00111240A
:102FF00020E030E070E0F901EA0FFB1FEC56FD4FD6
:103000004081CB01022E02C0969587950A94E2F783
:1030100081709927819584278523842780832F5F5A
:103020003F4F2530310539F70895292F220F920F90
:10303000990F890F682F669566956695982F9770FA
:1030400085E0689FB001112440E050E080E0FA0183
:10305000E60FF71FEC56FD4F208130E0092E02C02D
:10306000369527950A94E2F721703327042E01C084
:10307000220F0A94EAF7822B4F5F5F4F45305105CC
:1030800031F70895BF92CF92DF92EF92FF920F93A4
:103090001F93CF93DF938C01C090CF02D090D002CA
:1030A000E090D102F090D2028091CB029091CC02BC
:1030B000A091CD02B091CE02C82AD92AEA2AFB2AD1
:1030C000CFE1D0E0D701C6010C2E04C0B695A7957C
:1030D000979587950A94D2F780FF07C0BC2EB80158
:1030E0008C2F0E946309019719F4219758F7B12C8E
:1030F0008B2DDF91CF911F910F91FF90EF90DF907B
:10310000CF90BF900895CF93DF93EC010E944218B7
:10311000BE010E946309DF91CF9108951F93CF9361
:10312000DF93EB0190915902992321F0CB010E948A
:10313000831813C0882349F0CB010E944218182F2E
:10314000682FCE010E94E51704C0CB010E9415181C
:10315000182FBE01812F0E946309DF91CF911F912B
:1031600008958091D40208958091D3028595859524
:10317000859508958091D302877008959091D30228
:10318000977081E009F480E008958091F802089535
:103190009091F802892B8093F80208958095909180
:1031A000F80289238093F80208958093F802089525
:1031B0001092F80208959091F702892B8093F702FC
:1031C000089580959091F70289238093F7020895DE
:1031D0001092F70208959091F602892B8093F602DF
:1031E000089580959091F60289238093F6020895C0
:1031F0001092F60208958091D502089508950C94D6
:10320000FE189091D402891721F08093D4020C9477
:10321000FF1808958091D402882329F01092D402D7
:1032200080E00C94FF18089508950C94141990915F
:10323000D502981721F08093D5020C9415190895A2
:103240008091D502882329F01092D50280E00C9459
:1032500015190895E0910201F09103018091F8029F
:103260008083E0910201F091030190818091F70247
:10327000892B8083E0910201F0910301908180917C
:10328000F602892B80838091D502882381F0E0911A
:103290000201F09103019081892B808380910201CA
:1032A000909103010E944E1A81110E942019809171
:1032B0000201909103010C94A00C08950C945D19E7
:1032C00098E0899F90011124262B2093D3020E941D
:1032D00047178091D3028595859585950C945E1945
:1032E0001092D30280E00C945E192091D302809555
:1032F00082238093D302982F977079F430E0482F7F
:10330000082E000C550B2417350739F08595859547
:1033100085950E9468170C9470190895CF92DF92DA
:10332000EF92FF926C01EE24FF24C114D104E1045A
:10333000F10421F0C701B60120E101C020E0C72E51
:10334000D82EE92EFF24C114D104E104F10419F0B0
:10335000285FC701B6016B017C0154E0F694E79445
:10336000D794C7945A95D1F7C114D104E104F1045C
:1033700019F02C5FC701B6016B017C0142E0F694A5
:10338000E794D794C7944A95D1F7C114D104E104C6
:10339000F10419F02E5FC701B601DC01CB01B6952F
:1033A000A79597958795892B8A2B8B2B09F02F5FF3
:1033B000822FFF90EF90DF90CF90089580E090E013
:1033C0000E94882521E08D3E9E4F09F020E0822F4B
:1033D000089582E090E00C94802583E090E00C94C6
:1033E000802584E090E00C948025682F84E090E0B4
:1033F0000C948E25AB01BC018FE090E00C94A025CD
:10340000AB01BC0183E190E00C94A02560E070E08A
:10341000CB010C94001A60E070E0CB010E94FA1915
:103420000C94061A6DEE7EEF80E090E00E94AC25D1
:1034300060E082E090E00E948E2560E083E090E012
:103440000E948E251092CF021092D0021092D102CB
:103450001092D20260E084E090E00E948E2560E04D
:1034600085E090E00E948E2560E086E090E00E947A
:103470008E256FEF87E090E00E948E2540E050E0BF
:10348000BA0188E090E00E94A02560E08DE090E025
:103490000E948E250C940B1A0C94121AFC01329681
:1034A00080911301882331F08091330387FF02C09C
:1034B0009EE101C096E080E0915028F02191222306
:1034C000D9F38F5FF9CF08959C01FC0132969FEFED
:1034D00080E04191461789F09F3F19F4411101C0E6
:1034E000982F8F5F8630A9F79F3F39F0F901E90FD8
:1034F000F11D97FDFA95628308950895FC013296B7
:1035000008962081261301C010823196E817F9072A
:10351000C1F70895262F2695269526952E3168F415
:10352000FC01E20FF11D677021E030E001C0220FC5
:103530006A95EAF78281282B22830895262F269503
:10354000269526952E3170F4FC01E20FF11D67706F
:1035500021E030E001C0220F6A95EAF720958281D0
:1035600028232283089520911301222329F02091FA
:10357000330327FD0C948A1A0C94641A20911301CA
:10358000222329F02091330327FD0C949E1A0C94DA
:103590007E1A20911301FC013296222331F0809192
:1035A000330387FF02C08EE101C086E0DF011D9278
:1035B0008A95E9F7089508950C94DB1A0E94DC1AA5
:1035C00080913903843049F11092FA0220E488E1B5
:1035D00090E00FB6F894A895809360000FBE2093FA
:1035E000600080E00E949E070E94DC1A83B7817F02
:1035F000846083BF83B7816083BF7894889583B7E5
:103600008E7F83BF0FB6F894A89580916000886183
:1036100080936000109260000FBE08950895CF93CC
:103620000E941E040E94C7040E940E1BC0E08C2F43
:103630000E940F05811104C0CF5FCE30C1F701C0D9
:1036400081E0CF91089508950C94231B0E940C13E0
:103650000E94940C0E949E070C94241B1F920F92B0
:103660000FB60F9211248F939F93AF93BF938091C6
:10367000FA02811113C080912F0390913003A09121
:103680003103B09132034196A11DB11D80932F03E8
:1036900090933003A0933103B0933203BF91AF9165
:1036A0009F918F910F900FBE0F901F90189582E001
:1036B00084BD93E095BD9AEF97BD80936E00089509
:1036C0002FB7F89480912F0390913003A09131038C
:1036D000B09132032FBF0895CF92DF92EF92FF9205
:1036E0000F931F932FB7F89440912F0350913003FD
:1036F00060913103709132032FBF6A017B01EE2488
:10370000FF248C0120E030E0C016D106E206F3066B
:1037100010F4415051099A01281B390BC9011F911E
:103720000F91FF90EF90DF90CF90089578941F92C3
:103730000F920FB60F9211248F939F93AF93BF9365
:1037400080912F0390913003A0913103B091320307
:103750000196A11DB11D80932F0390933003A09378
:103760003103B0933203BF91AF919F918F910F902E
:103770000FBE0F901F901895F89481E08093E000A1
:1037800080E28093D800E9ECF0E010828FE19EE4C3
:103790000197F1F700C000001DBA109268001CBC30
:1037A00010BE1FBA10927A0010926E0010926F0035
:1037B00010927100109272001082ECEBF0E0108217
:1037C00014B817B81AB81DB810BA108215B818B8BE
:1037D0001BB81EB811BA0C94003F08950E94DE1960
:1037E000811102C00E944C1A0E94E9198093F902CB
:1037F0000E94F11990E090933403809333030E9468
:10380000ED19682F70E080E090E00C94E71680914D
:10381000FE0280FF0BC06091070185E0689FB00148
:10382000112475956795759567952BC081FF09C023
:103830006091070185E0689FB00111247595679537
:1038400020C082FF07C06091070185E0689FB0013A
:10385000112417C09091FF029923D1F060910601C5
:10386000961788F72091070185E0289F9001112481
:10387000929FA001939F500D112470E0CA010E94F5
:1038800052256038710540F46115710539F002C0A8
:1038900065E070E0862F08958FE7089581E0089530
:1038A0008091FE0280FF08C06091050170E075956F
:1038B00067957595679521C081FF06C060910501E8
:1038C00070E07595679519C082FF04C0609105018D
:1038D00070E010C09091FF029923C1F06091040143
:1038E0009617A0F780910501899FC001112470E00F
:1038F0000E9452256038710528F46115710521F088
:10390000862F08958FE7089581E0089561E070E0C3
:10391000F4CF803F21F40E94071C819504C0813FB1
:1039200029F40E94071C809303030895823F21F429
:103930000E94071C819504C0833F29F40E94071C44
:10394000809302030895893F19F40E94501C05C01A
:103950008A3F31F40E94501C81958093040308959E
:103960008B3F21F40E94501C819504C08C3F29F4A8
:103970000E94501C809305030895843F21F4809198
:103980000103816017C0853F21F4809101038260AB
:1039900011C0863F21F48091010384600BC0873FF2
:1039A00021F480910103886005C0883F31F4809143
:1039B000010380618093010308958D3F21F480917C
:1039C000FE0281600BC08E3F21F48091FE02826076
:1039D00005C08F3F29F48091FE0284608093FE022F
:1039E0000895803F39F48091030387FF6CC01092E3
:1039F000030369C0813F29F4809103031816BCF3C7
:103A000062C090910203823F29F497FF5CC010923C
:103A1000020359C0833F19F41916CCF354C0893FEF
:103A200041F48091040318160CF04DC01092040369
:103A30004AC08A3F29F48091040387FF44C0F6CF2F
:103A40008B3F39F48091050387FF3DC01092050339
:103A50003AC08C3F29F4809105031816BCF333C09B
:103A6000843F21F4809101038E7F17C0853F21F4AC
:103A7000809101038D7F11C0863F21F48091010365
:103A80008B7F0BC0873F21F480910103877F05C0A6
:103A9000883F31F4809101038F7E8093010313C02E
:103AA0008D3F21F48091FE028E7F0BC08E3F21F46A
:103AB0008091FE028D7F05C08F3F29F48091FE0228
:103AC0008B7F8093FE028091020381110EC0809152
:103AD000030381110AC080910403811106C0809103
:103AE0000503811102C01092FF02089580E093E067
:103AF0000E94BA0C0E94601B9093FC028093FB0210
:103B000008951F93CF93DF938091FB029091FC0265
:103B10000E946C1BAC019091FF02992321F020912F
:103B2000080130E006C02091FD028AE0289F900144
:103B300011244217530708F47BC080910203C091FF
:103B40000303D091040310910503811107C0C11133
:103B50006BC0D11169C0111167C06AC09F3F19F0D5
:103B60009F5F9093FF02181624F40E94071C809315
:103B700002038091020387FF05C00E94071C819504
:103B8000809302031C1624F40E94071C80930303F5
:103B90008091030387FF05C00E94071C81958093D5
:103BA0000303309102033323E1F020910303222326
:103BB000C1F045EB3403C0011124892F990F990BF3
:103BC000009709F481E08093020335EB2303C001E1
:103BD0001124892F990F990B009709F481E08093A4
:103BE00003031D1624F40E94501C8093040380914B
:103BF000040387FF05C00E94501C81958093040335
:103C0000111624F40E94501C809305038091050333
:103C100087FF05C00E94501C819580930503DF91AA
:103C2000CF911F910C94761D9F3F09F099CFA1CFA2
:103C3000DF91CF911F910895E0E0F3E086E0DF018E
:103C40001D928A95E9F71092FF021092FE020895E4
:103C50008091260308950F931F93CF93DF9300D095
:103C60001F92CDB7DEB78C010E949920823011F0EF
:103C7000843021F584E089831B830A8382E080936A
:103C8000E9008FEF9091E800815095FD06C095ED19
:103C90009A95F1F700008111F5CF8091E80085FF3A
:103CA0000DC040E050E063E070E0CE0101960E945C
:103CB000B6208091E8008E778093E8000F900F90F7
:103CC0000F90DF91CF911F910F910895CF93DF93C4
:103CD00000D01F92CDB7DEB720913903243031F5E3
:103CE00023E02983805891099B838A8382E0809313
:103CF000E9008FEF9091E800815095FD06C095EDA9
:103D00009A95F1F700008111F5CF8091E80085FFC9
:103D10000DC040E050E063E070E0CE0101960E94EB
:103D2000B6208091E8008E778093E8000F900F9086
:103D30000F90DF91CF910895CF93DF93EC010E9414
:103D40009920823011F08430F9F482E08093E90008
:103D50009FEF8091E800915085FD06C085ED8A9522
:103D6000F1F700009111F5CF8091E80085FF0CC0BC
:103D700040E050E066E070E0CE010E94B620809105
:103D8000E8008E778093E800DF91CF910895CF937C
:103D9000DF93EC010E949920823011F08430D9F534
:103DA00080911301882339F08091330387FF03C08A
:103DB00060E282E002C068E081E08093E9008FEF7A
:103DC0009091E800815095FD06C095ED9A95F1F728
:103DD00000008111F5CF8091E80085FF1CC0809123
:103DE0001301811105C040E050E068E070E003C0BD
:103DF00070E040E050E0CE010E94B6208091E800E3
:103E00008E778093E80080E2FE01A6E0B3E00190A7
:103E10000D928A95E1F7DF91CF9108958091380353
:103E2000811109C00E944B220E94A8228091E200C9
:103E300084608093E20008951092380308950895F5
:103E400008950C94261B42E061EC81E00E94C5219C
:103E500042E261EC82E00C94C52180913B03833007
:103E600009F460C030F4813071F0823009F499C0F7
:103E700008958A3009F485C08B3009F46BC089300D
:103E800009F0A7C020C080913A03813A09F0A1C08F
:103E90008091E800877F8093E80080913E039091B5
:103EA0003F03892B21F460E286E093E003C060E0E9
:103EB00080E090E070E00E9401218091E8008B7723
:103EC0008093E800089580913A03813209F081C01F
:103ED00080913E0390913F03029708F07AC0809151
:103EE000E800877F8093E8008091E80082FD05C0AC
:103EF000809139038111F8CF6CC02091F30080913B
:103F0000F20090E0922B029729F48091F1008B7FD0
:103F1000813021F48091F100809326038091E800A4
:103F20008B7753C080913A03813A09F052C0809157
:103F30003E0390913F03892B09F04BC08091E8002C
:103F4000877F8093E8008091E80080FFFCCF80911C
:103F5000130136C080913A038132D9F580913E0336
:103F600090913F03892BA9F58091E800877F80938A
:103F7000E8000E94FA2180913C03809313010C9485
:103F80000C1380913A03813221F58091E800877FFC
:103F90008093E8000E94FA2180913D0380932703DB
:103FA000089580913A03813AA1F48091E800877FD7
:103FB0008093E8008091E80080FFFCCF8091270388
:103FC0008093F1008091E8008E778093E8000C9454
:103FD000FA21089584B7877F84BF0FB6F894A89517
:103FE00080916000886180936000109260000FBE35
:103FF00080E880936100109261000E94FC0C0E9496
:104000004B220E94A8228091E20084608093E2000B
:1040100078940E9437250E94020D89E091E00E9469
:104020008F0C80913903853069F40E94DE1A8091EB
:1040300037038823B1F30E940F1B882391F30E945A
:10404000A020EFCF0E94080DECCF0C942720292F41
:10405000332723303105C9F064F42130310581F074
:104060002230310509F04CC08BE390E02FE735E0BA
:104070004BC02132310521F12232310589F140C096
:1040800082E190E02AEB35E03FC09927813091052D
:1040900071F02CF4892BA1F5EBE7F5E00DC082302F
:1040A000910541F0039761F5E5E4F5E005C0E3E62D
:1040B000F5E002C0EBE4F5E0849190E09F0124C0BC
:1040C0006115710541F061307105D1F489E090E02E
:1040D0002AEA35E019C089E090E021E935E014C012
:1040E0006115710541F06130710551F480EC90E08B
:1040F0002CEC35E009C080E490E02CE836E004C008
:1041000080E090E020E030E0FA01318320830895E0
:104110000895CF93C82F0E948820C0932803CF9181
:10412000089580913903843011F081E0089582E090
:10413000089580912803811102C00C949120089564
:1041400080E189BD82E189BD09B400FEFDCF809187
:10415000D8008F7D8093D8008091E00082608093AA
:10416000E0008091E00081FDFCCF0895CF92DF92C6
:10417000EF92FF920F931F93CF93DF93EC018B018C
:104180006A010E941922811133C0C114D10439F08F
:10419000F60180819181081B190BC80FD91FE12CF2
:1041A000F12C0115110519F18091E80085FD16C06B
:1041B0008091E8008E778093E800C114D10449F023
:1041C000F60180819181E80EF91EF182E08285E09E
:1041D0000FC00E941922882321F30AC0899180937D
:1041E000F10001501109FFEFEF1AFF0ADACF80E06A
:1041F000DF91CF911F910F91FF90EF90DF90CF90C3
:10420000089520914003309141032617370748F065
:104210006115710539F42091E8002E772093E800AC
:1042200001C0B90140E061157105A9F12091390380
:10423000222309F443C0253009F442C02091E8004C
:1042400023FD40C02091E80022FD32C02091E8000B
:1042500020FFE9CF4091F3002091F20030E0342BB1
:10426000FC01CF016115710559F02830310540F48A
:1042700081918093F100615071092F5F3F4FF1CF21
:1042800041E02830310509F040E02091E8002E7728
:104290002093E800C8CF4111C9CF0AC080913903EB
:1042A000882361F0853061F08091E80083FD0AC0C9
:1042B0008091E80082FFF2CF80E0089582E00895C7
:1042C00083E0089581E008952091400330914103F7
:1042D0002617370748F06115710539F42091E80079
:1042E0002E772093E80001C0B901FC0120E06115A0
:1042F000710591F180913903882309F440C085301C
:1043000009F43FC08091E80083FD3DC08091E80042
:1043100082FD2FC08091E80080FFE9CF2091F3005B
:104320008091F20090E0922B6115710559F0883070
:10433000910540F424912093F10031966150710968
:104340000196F2CF21E0089709F020E08091E80083
:104350008E778093E800CBCF2111CCCF0AC080911B
:104360003903882361F0853061F08091E80083FD96
:104370000AC08091E80082FFF2CF80E0089582E0D9
:10438000089583E0089581E00895982F973058F5B7
:104390009093E900981739F07091EC002091ED00AE
:1043A0005091F00003C0242F762F50E021FF19C058
:1043B0003091EB003E7F3093EB003091ED003D7F7C
:1043C0003093ED003091EB0031603093EB0070934F
:1043D000EC002093ED005093F0002091EE0027FFB9
:1043E00007C09F5FD3CF8F708093E90081E008956D
:1043F00080E0089580913A0387FF11C08091E80022
:1044000082FD05C0809139038111F8CF11C08091E0
:10441000E8008B770BC080913903882349F08091A5
:10442000E80080FFF8CF8091E8008E778093E80065
:1044300008952091E4003091E50095E64091EC006C
:10444000842F817040FF22C08091E80080FD1CC055
:1044500080913903882391F0853091F08091EB00B1
:1044600085FD10C04091E4005091E50042175307CC
:1044700029F39A01915011F784E0089582E008959C
:1044800083E0089581E0089580E008954091E80078
:1044900042FFDECF08950E94B9220E94C122E0EEC1
:1044A000F0E0808181608083E8EDF0E080818F77AB
:1044B000808319BCA7EDB0E08C918E7F8C938081B6
:1044C0008F7E80831092380308950F931F93CF93AC
:1044D000DF930E94B9220E94C122C8EDD0E08881FA
:1044E0008F77888388818068888388818F7D88839F
:1044F00019BC1092390310923503109237031092B1
:10450000360300EE10E0F80180818B7F8083888184
:104510008160888342E060E080E00E94C521E1EE96
:10452000F0E080818E7F8083E2EEF0E08081816028
:104530008083808188608083F80180818E7F808382
:10454000888180618883DF91CF911F910F910895B9
:10455000E8EDF0E080818F7E8083E7EDF0E0808100
:104560008160808384E082BF81E0809338030C9473
:104570006522E8EDF0E080818E7F80831092E2007A
:1045800008951092DA001092E10008951F920F92A0
:104590000FB60F9211242F933F934F935F936F9316
:1045A0007F938F939F93AF93BF93EF93FF938091EC
:1045B000E10082FF0BC08091E20082FF07C0809182
:1045C000E1008B7F8093E1000E9436258091DA0024
:1045D00080FF1FC08091D80080FF1BC08091DA004F
:1045E0008E7F8093DA008091D90080FF0DC080E13A
:1045F00089BD82E189BD09B400FEFDCF81E08093D1
:1046000039030E940E1F05C019BC109239030E9485
:104610001C1F8091E10080FF19C08091E20080FFA3
:1046200015C08091E2008E7F8093E2008091E200CD
:1046300080618093E2008091D80080628093D800EE
:1046400019BC85E0809339030E94201F8091E1000E
:1046500084FF30C08091E20084FF2CC080E189BDDE
:1046600082E189BD09B400FEFDCF8091D8008F7D25
:104670008093D8008091E1008F7E8093E10080914B
:10468000E2008F7E8093E2008091E200816080935F
:10469000E20080913503882311F084E007C0809107
:1046A000E30087FD02C081E001C083E0809339030D
:1046B0000E94211F8091E10083FF29C08091E200C8
:1046C00083FF25C08091E100877F8093E10082E035
:1046D00080933903109235038091E1008E7F80939F
:1046E000E1008091E2008E7F8093E2008091E20001
:1046F00080618093E20042E060E080E00E94C5219A
:104700008091F00088608093F0000E941F1FFF914D
:10471000EF91BF91AF919F918F917F916F915F9139
:104720004F913F912F910F900FBE0F901F901895B2
:104730001F920F920FB60F9211242F933F934F9316
:104740005F936F937F938F939F93AF93BF93CF9319
:10475000DF93EF93FF93C091E900CF708091EC005D
:10476000D82FD17080FDD0E81092E9008091F00040
:10477000877F8093F00078940E94DC231092E900F8
:104780008091F00088608093F000CD2BCF70C093B3
:10479000E900FF91EF91DF91CF91BF91AF919F9190
:1047A0008F917F916F915F914F913F912F910F90DA
:1047B0000FBE0F901F9018951F93CF93DF93CDB727
:1047C000DEB7AA970FB6F894DEBF0FBECDBFEAE3FF
:1047D000F3E088E08E0F9091F10091938E13FBCF60
:1047E0000E942D1F8091E80083FF28C180913A0329
:1047F00090913B03492F50E04A30510508F01EC10B
:10480000FA01E755FF4F0C946625803821F0823875
:1048100009F014C108C080913603909137039923A1
:1048200089F082600FC080913E038F70873008F05E
:1048300005C18093E9008091EB0085FB882780F912
:104840001092E9009091E800977F9093E8008093A0
:10485000F1001092F100D0C0282F2D7F09F0EEC09A
:10486000882319F0823061F0E9C080913C038130E7
:1048700009F0E4C0933009F080E0809337032EC044
:1048800080913C0381112AC080913E038F702FEFED
:10489000280F263008F0D2C08093E9002091EB0069
:1048A00020FF1CC0933021F48091EB00806214C083
:1048B0009091EB0090619093EB0021E030E0A90132
:1048C00002C0440F551F8A95E2F74093EA00109208
:1048D000EA008091EB0088608093EB001092E90081
:1048E0008091E800877F8093E8000E94FA21A6C0AB
:1048F0008111A4C010913C031F778091E300807860
:10490000812B8093E3008091E800877F8093E8000B
:104910000E94FA218091E80080FFFCCF8091E300A3
:1049200080688093E300111102C082E001C083E03F
:104930008093390383C08058823008F07FC0809113
:104940003C0390913D038C3D53E0950779F583E05E
:104950008A838AE289834FB7F894DE01139620E0B8
:104960003EE051E2E32FF0E050935700E49120FF46
:1049700003C0E295EF703F5FEF708E2F90E0EA305A
:1049800010F0C79601C0C0968D939D932F5F243180
:1049900049F74FBF8091E800877F8093E8006AE283
:1049A00070E0CE0101960E94012115C060913E0386
:1049B00070913F03AE014F5F5F4F0E942520BC0105
:1049C000892BE1F19091E800977F9093E80089812D
:1049D0009A810E9464218091E8008B778093E8009F
:1049E0002DC0803859F58091E800877F8093E800DA
:1049F000809135038093F1008091E8008E7773CF2A
:104A000081111CC090913C039230C0F48091E80069
:104A1000877F8093E800909335030E94FA2180916C
:104A20003503811106C08091E30087FD02C081E05B
:104A300001C084E0809339030E94231F8091E80025
:104A400083FF0AC08091E800877F8093E80080910F
:104A5000EB0080628093EB00AA960FB6F894DEBF5D
:104A60000FBECDBFDF91CF911F9108950895CF93D1
:104A7000809139038823A1F0C091E900CF70909113
:104A8000EC00892F817090FD80E8C82B1092E9001E
:104A90008091E80083FD0E94DC23CF70C093E90081
:104AA000CF91089597FB072E16F4009407D077FD59
:104AB00009D00E946C2507FC05D03EF490958195A5
:104AC0009F4F0895709561957F4F0895EE0FFF1FDA
:104AD0000590F491E02D0994AA1BBB1B51E107C07E
:104AE000AA1FBB1FA617B70710F0A61BB70B881F7E
:104AF000991F5A95A9F780959095BC01CD0108950D
:104B0000F999FECF92BD81BDF89A992780B5089595
:104B1000A8E1B0E042E050E00C94B425262FF999CA
:104B2000FECF92BD81BDF89A019700B4021639F00C
:104B30001FBA20BD0FB6F894FA9AF99A0FBE0895DD
:104B40000396272F0E948F250E948E25252F0E94D5
:104B50008F25242F0C948F250196272F0E948F25B7
:104B60000C948E25DC01CB01FC01F999FECF06C027
:104B7000F2BDE1BDF89A319600B40D92415050401B
:084B8000B8F70895F894FFCF87
:104B88002000D60228013C0714281EC71E9C1E665A
:104B98001E2B1E01000D010D020D030D040D050D48
:104BA800000C010C020C030C040C050C000B010B8F
:104BB800020B030B040B050B000A010A020A030A85
:104BC800040A050A0009010902090309040905097B
:104BD800000801080208030804080508000701077F
:104BE8000207030704070507000601060206030675
:104BF800040605060005010502050305040505056B
:104C0800000401040204030404040504000301036E
:104C18000203030304030503000201020202030264
:104C2800040205020001010102010301040105015A
:0C4C380000000100020003000400050061
:00000001FF
