:100000000C94F7030C9414040C9414040C9414042E
:100010000C9414040C9414040C9414040C94140400
:100020000C9414040C9414040C94E3230C94B52441
:100030000C94581C0C9414040C9414040C94140484
:100040000C9414040C9414040C9414040C941404D0
:100050000C9414040C94C01C0C9414040C941404FC
:100060000C9414040C9414040C9414040C941404B0
:100070000C9414040C9414040C9414040C941404A0
:100080000C9414040C9414040C9414040C94140490
:100090000C9414040C9414040C9414040C94140480
:1000A0000C9414040C9414040C9414046A046D0449
:1000B00070047304760479047C043D0742074C07FE
:1000C000400745074A074807D708D908E408DB086E
:1000D000DD08DF08E108E308E608E808EA08F508B3
:1000E000EC08EE08F008F208F408F7082B112B11C1
:1000F0005D115D11A611C6114B13A9130812A913A6
:10010000B512B5124213A913A913A313C212C21236
:10011000C212C212C212C212C212C212C212C2123F
:10012000C212C212C212C212C212C212D312E01200
:10013000E712EE12F8123A143A144C144C14431409
:100140004C144C144C143A143A1448144C144C14D7
:100150004814222549253B2649253B269525B825C7
:100160003B260E261D266572676F646F785F657A81
:100170002F6166343436373737383330393061647D
:100180006661306334204020302E362E3332352DD8
:1001900036372D67303631326339000000F0A1293F
:1001A000002B000254E100E00000001E00140004D7
:1001B000001D00E300E0001F001A0016611B00E2B2
:1001C000000255200008000762060028002C0021CC
:1001D000001500096419000154E200220017000A0A
:1001E000000500000065000153F7000000501900F1
:1001F0000049000153F80000004F19000046002399
:10020000001C000B00110000002961240018000DE3
:1002100074100050434B0025000C000E7236004F46
:10022000002A00260012000F71370051004C0027F1
:100230000013003300380052004E412D0031782861
:1002400000E5000253000029000100010001000147
:100250000000003A00340034022002010001003B9B
:100260000038002E002302010001003C002F02266E
:10027000022F00010001003D003002270230000182
:100280000001003E00350038023502000001000187
:100290000001000000010000000100010001000059
:1002A000000100000001003F00340034022402007D
:1002B0000001004000240021001E00270001004131
:1002C00000250022001F0062005600420026002385
:1002D0000020003700570043002502540031002E53
:1002E0000001004400450001000100010000000180
:1002F00000010001000100010000000100010001F7
:1003000000FB000100010001000100F200FA000101
:1003100000F5000100F000F100F9000100F4000117
:10032000000100F300FC00F60001000100FF00FEE8
:1003300000FD0000000100010001000000010000BC
:1003400000010014504600000001000000010001FF
:1003500000FF00FE00FD000000010001004A005007
:1003600000010001004B000100520051000100019A
:10037000002A0001004D004F00010001004C000167
:100380000001000100010001004E00010001000118
:100390000001000100000001000100010001000156
:1003A000000000010001001E020100010001000127
:1003B0000001001F020100010001000100010020F6
:1003C0000201000100010001000100210201000101
:1003D00000010001000100220201000000010001F3
:1003E0000001000000010000000100010001000008
:1003F00000010000000100010001002302010000D3
:1004000000010001000100240201000100010001BF
:100410000001002502010001000100010001002689
:10042000020100010001000100010027020100019A
:10043000000100005C010001000100010000002932
:10044000002B000100E100E00000001E0014000489
:10045000001D00E30001001F001A0016001B00E24F
:10046000000100200008000700060001002C002108
:100470000015000900190001000100220017000A00
:100480000005000000010001000100000001000063
:1004900000010010500100000001000000010023D5
:1004A000001C000B00110000000100240018000DCA
:1004B0000010005000010025000C000E0036004F17
:1004C000000100260012000F003700510001002734
:1004D00000130033003800520001002D00010028F5
:1004E0000001000100000000000000000000002AE0
:1004F0002B280000000000000000000000000000A9
:10050000000029000000002C1E3420212224342663
:1005100027252E362D3738271E1F2021222324255C
:10052000263333362E37381F0405060708090A0B11
:100530000C0D0E0F101112131415161718191A1B83
:100540001C1D2F3130232D350405060708090A0B21
:100550000C0D0E0F101112131415161718191A1B63
:100560001C1D2F3130354C00000000000000000041
:10057000000000000000000000000000000000007B
:10058000000000000000000000000000000000006B
:10059000000000000000000000000000000000005B
:1005A000000000000000000000000000000000004B
:1005B000000000000000000000000000000000003B
:1005C000000000000000000000000000000000002B
:1005D000000000000000000000000000000000001B
:1005E000000000000000000000000000000000000B
:1005F00000000000000000000000000000000000FB
:1006000000000000000000000101010101010001E3
:1006100001010100000000000000000000000000D7
:1006200000010001000101010101010101010101BD
:1006300001010101010101010101010101010101AA
:1006400001010000000101000000000000000000A6
:10065000000000000000000000000000000000009A
:1006600000000101010100040330000000160345F1
:1006700000720067006F0044006F007800200045A2
:10068000005A00000016034500720067006F004426
:10069000006F007800200045005A000000040309A4
:1006A0000409023B00020100A0FA09040000010352
:1006B0000101000921110100012240000705810309
:1006C00008000A09040100010300000009211101CA
:1006D000000122C0000705820320000A1201100158
:1006E00000000008EDFE07130100010203010501EF
:1006F0000902A10185020901A100050919012905C5
:10070000150025019505750181029501750381018B
:100710000501093009311581257F9502750881068B
:1007200009381581257F950175088106050C0A3861
:10073000021581257F950175088106C0C005010954
:1007400080A10185031601002603001A81002A8377
:1007500000751095018100C0050C0901A1018504F7
:10076000160100269C021A01002A9C0275109501B0
:100770008100C005010906A1018505050719E029C9
:10078000E715002501950875018102050819012961
:1007900005950575019102950175039101050719EC
:1007A0000029EF1500250195F075018102C00501B2
:1007B0000906A101050719E029E71500250195089B
:1007C0007501810295017508810105081901290546
:1007D00095057501910295017503910105071900B1
:1007E00029FF150026FF00950675088100C0112419
:1007F0001FBECFEFDAE0DEBFCDBF11E0A0E0B1E079
:10080000ECE1F0E502C005900D92A23CB107D9F7EA
:1008100022E0A2ECB1E001C01D92AB3FB207E1F7CC
:100820000E9407210C940C280C94000080B38C705B
:1008300080BB81B3836F81BB089584B1807F84B90D
:1008400085B1807F85B98AB1837F8AB98BB1837F77
:100850008BB93E9846980895CF93E82F873080F55E
:100860008091060190910701892B09F047C0CE2F96
:1008700064E670E080E40E94740590930701809321
:100880000601892BD1F464E670E082E10E94CB0579
:100890009093070180930601892B79F481E090E021
:1008A00001C0880FCA95EAF764E670E080950E945F
:1008B000CB059093070180930601CF910C942006FD
:1008C00090E0FC013797E730F105C0F4EA5AFF4F9A
:1008D0000C949726209A289811C0219A29980EC026
:1008E000229A2A980BC0239A2B9808C0529A5A9899
:1008F00005C0539A5B9802C03E9A4698CF910895DE
:10090000CF93873008F03FC0809106019091070196
:10091000892B09F041C064E670E080E40E94740510
:100920009093070180930601892B11F0C0E027C046
:1009300064E670E083E10E94CB0590930701809309
:100940000601892B99F764E670E081E40E94740542
:100950009093070180930601892B41F784E690E08C
:100960000E94FB0597FF05C0909307018093060145
:10097000DDCFC82FC09510920701109206010E948A
:1009800020068C2F0AC09FB18FB1807F86958695F7
:100990009370892B809501C080E0CF9108950895D0
:1009A00008950C94D0040E94920690E09093070161
:1009B000809306010E941D040E941604A1EDB1E07F
:1009C000E3ECF1E08EE08E0F11921D928E13FCCFBE
:1009D0008EE00E942B0C0C9405080E94920690E079
:1009E00090930701809306010E941D040E94160443
:1009F000E3ECF1E08EE08E0F11928E13FDCF08959F
:100A0000CF92DF92EF92FF920F931F93CF93DF93DA
:100A10008091060190910701892B91F08091C2018C
:100A20008F5F8093C20181110BC00E94920690E0FB
:100A30009093070180930601892B11F40E942406EC
:100A400091EDE92E91E0F92E08ED11E0C0E0D12CF6
:100A500087E0C82ECC0E8C2F0E942C048C2D0E9477
:100A60002C048C2F0E948004F7019081981719F0B4
:100A70008083D1E001C0D0E08C2D0E948004F80179
:100A80009081981719F0808381E001C080E0D82B15
:100A9000DD2A0E941D04CF5FFFEFEF1AFF0A0F5FF0
:100AA0001F4FC730A9F62D2D4EE063EC71E081EDAC
:100AB00091E00E94970C0E940F0881E0DF91CF9196
:100AC0001F910F91FF90EF90DF90CF900895E82F46
:100AD000F0E0ED53FE4F8081089508951092B90023
:100AE0008CE08093B8000895EF92FF920F931F93CC
:100AF000CF93DF93182FEB011092BC0084EA809310
:100B0000BC000E948A1C7C019091BC0097FD0EC025
:100B1000CF3F8FEFD807C1F30E948A1C8E199F091F
:100B20008C179D0788F38EEF9FEF2EC09091B90030
:100B3000987F983041F09091B900987F903119F0EA
:100B40008FEF9FEF21C01093BB0084E88093BC001F
:100B50000E948A1C8C019091BC0097FD0CC0CF3F75
:100B60008FEFD807C1F30E948A1C801B910B8C1752
:100B70009D0788F3D8CF8091B900887F883111F024
:100B80008034F1F680E090E0DF91CF911F910F91DA
:100B9000FF90EF9008950F931F93CF93DF93EB0196
:100BA0008093BB0084E88093BC000E948A1C8C0167
:100BB0009091BC0097FD0EC0CF3F8FEFD807C1F3D7
:100BC0000E948A1C801B910B8C179D0788F38EEF67
:100BD0009FEF0CC02091B900287F81E090E028327F
:100BE00011F480E090E0919581959109DF91CF918A
:100BF0001F910F9108950F931F93CF93DF93EC01F3
:100C000084E88093BC000E948A1C8C019091BC00F7
:100C100097FD0EC0CF3F8FEFD807C1F30E948A1C0B
:100C2000801B910B8C179D0788F38EEF9FEF03C0FD
:100C30008091BB0090E0DF91CF911F910F910895BB
:100C400084E98093BC00089556985E9825982D9865
:100C500026982E9827982F988FEF90E090938900F0
:100C60008093880090938B0080938A0090938D00EE
:100C700080938C00259A2D9A2FEF80E792E02150E7
:100C800080409040E1F700C00000269A2E9A2FEF96
:100C900080E792E0215080409040E1F700C00000E2
:100CA000279A2F9A2FEF80E792E0215080409040C2
:100CB000E1F700C0000025982D982FEF80E792E023
:100CC000215080409040E1F700C0000026982E9807
:100CD0002FEF80E792E0215080409040E1F700C084
:100CE000000027982F9856985E9825982D9826985A
:100CF0002E9827982F98089589EA8093800089E09C
:100D00008093810024982C983F988AB18F7C8AB96F
:100D10006E98479A8BB180638BB9769A0E942406AD
:100D20000C94CF0480E290E0909307018093060139
:100D30008091DF0181110EC00E946E0581E08093D9
:100D4000DF012FEF83ED90E3215080409040E1F7E9
:100D500000C0000064E670E080E40E947405909397
:100D6000070180930601892B09F04EC064E670E00C
:100D700080E00E94CB059093070180930601892BA8
:100D800009F042C064E670E080E00E94CB059093D9
:100D9000070180930601892BB9F564E670E08FE3C3
:100DA0000E94CB059093070180930601892B61F582
:100DB0000E94200664E670E080E40E94740590932F
:100DC000070180930601892BF9F464E670E08CE05A
:100DD0000E94CB059093070180930601892BA1F413
:100DE00064E670E080E00E94CB0590930701809359
:100DF0000601892B49F464E670E08FE30E94CB057D
:100E000090930701809306010E94200680910601BD
:100E10000895611108C0FC018281882321F086E6D3
:100E200091E00E94020880E090E00895813F9C4597
:100E300041F4FB018281882329F00E94761B80E027
:100E4000089581E00895CF92DF92EF92FF926B01B7
:100E50007C010E94AC1A56985E9825982D98269889
:100E60002E9827982F9890E0FC013197E730F105F4
:100E7000A8F4E35AFF4F0C949726259A2D9A0EC09A
:100E8000259A2D9A269A2E9A09C0259A2D9A04C041
:100E9000259A2D9A269A2E9A279A2F9AC701B6013B
:100EA000FF90EF90DF90CF90089581E008950C942B
:100EB00016071F93CF93DF9300D000D01F92CDB7BA
:100EC000DEB749835A8320910E0289819A812111CC
:100ED00012C0662349F00E946019182F682F89817B
:100EE0009A810E94031903C00E943319182F698147
:100EF0007A81812F04C00E94601969817A810F90E4
:100F00000F900F900F900F90DF91CF911F910C9445
:100F1000AC09FC01408151816281738184810C9410
:100F200059071F93CF93DF93282F30E0F901E95140
:100F3000FB4F1491F901E951FA4FE491C1E0E1113D
:100F400001C0C0E0F901E959FA4F2491D1E0211123
:100F500001C0D0E0CC2319F081EE0E94590FDD23AF
:100F600019F086EE0E94590F812F0E94DF10DD23B9
:100F700019F086EE0E947710CC2331F081EEDF91DC
:100F8000CF911F910C947710DF91CF911F9108950D
:100F90000F931F93CF93DF93EC01062FFE018491F3
:100FA000882359F19E012F5F3F4F813041F4E901C1
:100FB000F9011491812F0E94590F812F0DC08230A9
:100FC00031F4E901F90184910E94590F0AC083307C
:100FD00031F4E901F90184910E94771002C00E9466
:100FE00091072196802F8823C9F2EFE9FFE031971E
:100FF000F1F700C000008150F6CFDF91CF911F9133
:101000000F91089560E00C94C8070E94FC1A8111AA
:1010100002C00E94761B0E94EF0C0C947C060C947C
:10102000D104282F2F7041F0822F90E02A3010F445
:101030004D9608950697089587E290E008950895E3
:101040000C941F080C94200808950E942A140E94F2
:1010500024082FEF84E39CE0215080409040E1F78A
:1010600000C000000C94E61C0F931F93CF93DF93F6
:101070008C010E948907EC01B8010E945707882360
:1010800009F463C1B801CE010E946E0D882309F4F2
:101090005CC1C73DFCE5DF0761F5F801828188236B
:1010A00051F01092E5010E948A1C9093E201809316
:1010B000E10182E03BC00E94E31985FF05C081E0A9
:1010C0008093E5018093E6018091E50181110FC0D5
:1010D0008091E1019091E2010E94961C883C91056B
:1010E00030F486E20E94590F86E20E94771082E077
:1010F0002FC0C83D8CE5D80770F1CC3D8CE5D807F2
:1011000009F4D5C008F0DAC0C83DFCE5DF0709F0F6
:10111000F3C0F8018281882361F01092E6010E94F9
:101120008A1C9093E4018093E30180E20E94E7101F
:101130000CC10E94E31981FF05C081E08093E501A5
:101140008093E6018091E601882309F4C4C080E21F
:101150000E94EE10FAC0C531ECE5DE0708F07DC054
:10116000C230FCE5DF0708F452C0F8018281882311
:1011700009F459C00E94FC1A811102C00E94761B1A
:101180000E940F1B90E09093E9028093E802FE0119
:10119000E350FC45E231F10530F4EC59FF4F80910A
:1011A000E8020C9497268091E802816027C0826053
:1011B00025C0846023C0806121C080621FC080641C
:1011C0001DC080681BC08460886018C08E7F16C0F8
:1011D0008D7F14C08B7F12C08F7E10C08F7D0EC09C
:1011E0008F7B0CC08F770AC08B7F877F07C087FB00
:1011F000222720F991E0922790FB87F98093E8025B
:101200008091E8020E94131B0E942A149EC0C115FF
:101210008CE5D80779F0C130DC45A1F081E08093FE
:10122000E5018093E601C801DF91CF911F910F91F5
:101230000C945507F8018281882309F486C00E9426
:10124000250883C0F8018281882309F47EC080913B
:10125000AE0281608093AE0278C0C631DC45F1F603
:101260000E94E319282FF8018281409108015091D2
:101270000901882379F02A7A91E009F490E09093AB
:10128000E001911102C069E201C065E3CA010E9458
:10129000DD1B0AC08091E001811102C069E201C03A
:1012A00065E3CA010E94E81B0E94481A4EC0F8017B
:1012B0008281882309F449C080E00AC0CD3DECE575
:1012C000DE07D1F5F8018281882309F43EC082E06F
:1012D0000E94A6213AC08091E3019091E4010E940E
:1012E000961C883C910508F032CF87E20E94590F86
:1012F00087E20E9477102BCFC93DDC4509F08ECFE5
:10130000F8018281811109CF8091E60181111FCFFF
:101310008091E3019091E4010E94961C883C910524
:1013200008F015CF80E20E94EE1088E20E94590F6B
:1013300088E20E94771009C0CE3DDC4509F06ECFEF
:10134000F801828181110E94761B80E0DF91CF91AC
:101350001F910F910895089596E0799FF00111244F
:1013600094E5899FE00DF11D1124E60FF11DEE0FAC
:10137000FF1FE156FE4F859194910895880F991FA4
:10138000FC01E556FE4F859194910895CF93DF932C
:101390000E94AC090E948B0BEC01811520E592079D
:1013A000F0F5811530E4930708F029C1883E9105D6
:1013B00000F5803E910508F0AAC1883A910570F4C5
:1013C000853A910508F0A4C08130910509F49FC1C8
:1013D00008F450C1049708F09AC14CC18F3B9105A5
:1013E00008F4A1C0803C910508F444C1805C9109D7
:1013F000F9C0811540E2940758F4C11581E0D8077F
:1014000008F085C1C03FD10508F434C1D0657FC163
:10141000811520E3920708F0E9C09F70E3C08115B1
:1014200035E5930708F044C0811544E5940708F0BA
:10143000FDC0C11582E5D80708F5C11521E5D20721
:1014400008F0E0C08C2F837021E030E002C0220F52
:10145000331F8A95E2F73C68CE0174E09695879534
:101460007A95E1F78370382BCF70C695C69540E228
:10147000C49FE0011124C22BD32B49C12C2F2695E8
:101480002695CE0183709927C115D34508F0BFC0BA
:1014900040E2249F90011124C1E0D0E002C0CC0FB3
:1014A000DD1F8A95E2F72C2B3D2BE901DC682FC16B
:1014B00081154AE59407A0F4C11589E5D80708F01D
:1014C000C4C0C11526E5D20708F4B5C0C11538E57A
:1014D000D30708F4CFC0DC2FCC27C06FD06A17C168
:1014E00081159B4508F4C6C0C1158CE5D80708F4E2
:1014F000BEC0CE0190568115904208F0BBC08D2F22
:101500008F710E94080CDD27D0628F71D82BFFC02D
:10151000853A910509F4B1C0863A910509F0B0C049
:10152000C2E8D0E4F4C0883A910509F4ACC0893A25
:10153000910509F4ABC08A3A910509F4AAC08B3A27
:10154000910509F4A9C08C3A910509F4A8C08B3B18
:10155000910509F4A7C08C3B910509F4A6C08D3A0A
:10156000910509F4A5C0803B910509F4A4C08E3A09
:10157000910509F4A3C08F3A910509F4A2C0813BFB
:10158000910509F4A1C0823B910509F4A0C0833BF9
:10159000910509F49FC0843B910509F49EC0853BE9
:1015A000910509F49DC0863B910509F49CC0873BD9
:1015B000910509F49BC0883B910509F49AC0893BC9
:1015C000910509F499C08D3B910509F498C08E3BB3
:1015D000910509F497C08A3B910509F496C0C0E0D3
:1015E000D4E495C00E94BE09EC0191C09927D3FFB5
:1015F00003C0EC01D86C8BC0EC01D06C88C0DF70EC
:10160000D06A85C0DC2FCC27C16FD06A80C040E291
:10161000249F90011124C1E0D0E002C0CC0FDD1F57
:101620008A95E2F7C22BD32BDA6871C0D82FCC276A
:10163000C46FD06A6CC08C2F0E94080C8F71C82FA9
:10164000D0E0DC2FCC27D06262C08C2F8F700E943C
:10165000080C94E0D695C7959A95E1F7CF70D0E045
:10166000DC2FCC27D06A8F70806EC82B50C0DD274E
:10167000D0664DC0C0E0D0E04AC0C1E8D0E447C069
:10168000C3E8D0E444C0C2EED4E441C0C9EED4E41F
:101690003EC0CAEED4E43BC0C5EBD4E438C0C6EBD0
:1016A000D4E435C0C3EBD4E432C0C4EBD4E42FC0DF
:1016B000C7EBD4E42CC0CCECD4E429C0CDECD4E40A
:1016C00026C0C3E8D5E423C0CAE8D5E420C0C2E9F7
:1016D000D5E41DC0C4E9D5E41AC0C1E2D6E417C000
:1016E000C3E2D6E414C0C4E2D6E411C0C5E2D6E435
:1016F0000EC0C6E2D6E40BC0C7E2D6E408C0CFE60F
:10170000D4E405C0C0E7D4E402C0CAE2D6E4CE0106
:10171000DF91CF9108958238910549F1B0F481337A
:10172000910509F458C048F48932910509F44EC076
:101730008A32910509F454C008958533910509F45E
:1017400040C08933910599F00895833E910529F1B0
:1017500038F4803E910591F0823E9105A1F0089504
:10176000863E9105F9F0873E910531F1089520916B
:10177000E80220FD3AC021FD38C008958091E802BA
:1017800080FD35C032C08091E80282FF32C0809176
:10179000E80284FD30C083EE39C08091E80282FD0A
:1017A00028C0F5CF8091E80283FF27C08091E8022E
:1017B00084FD21C087EE2AC08091E80283FD1DC010
:1017C000F5CF8091E80285FD1AC01BC08091E80228
:1017D00085FD17C014C08091E80286FD14C015C0B5
:1017E0008091E80286FD11C00EC080EE0FC089E333
:1017F0000DC082EE0BC080E009C086EE07C089E212
:1018000005C085E303C08AE201C081E390E008954A
:101810009091E80292FF0DC0282F2871283019F40A
:10182000877F846006C0282F2471243011F48B7FB9
:10183000886093FF0DC0282F2871283119F4877E06
:10184000846106C0282F2471243111F48B7E8861B5
:1018500094FD877E0895CF93C82F90E00E949D2627
:101860008093E8019093E901282FFC019BEF8E2FD4
:10187000821B8C1710F49193FACFCF9108950F9398
:101880001F93CF93DF931092E7015091E801E52F6A
:10189000F091E90140E0A62FB0E07BEFCAEFD0E085
:1018A0009E2F951B9817D0F490819B3FA9F0292F6C
:1018B00030E0691728F08D01021B130B980106C058
:1018C0008E01021B130B98012A0F3B1F2530310597
:1018D00014F0708301C041E03196E2CF4093E701FC
:1018E000DF91CF911F910F910895CF93DF93509186
:1018F000E8013091E701DB01E52FF091E9016E2F5E
:10190000651B641778F47C91EC016991CE01C0816C
:10191000CB3F29F4761719F020836C9331E0319690
:101920001196EDCF3093E701DF91CF910895DF92CB
:10193000EF92FF920F931F93CF93DF9300D0CDB719
:10194000DEB78C017B01D22E4A830E948A1C6AEF8B
:1019500070E00E946F26282F8091E7014A8188233A
:10196000D9F0622F842F29830E943F0C29814A815C
:10197000DD2069F0B701C8010F900F90DF91CF9182
:101980001F910F91FF90EF90DF900C94750C809158
:10199000E701882379F302C0D110ECCF0F900F90AC
:1019A000DF91CF911F910F91FF90EF90DF900895FD
:1019B000CF93DF93813020E8920768F0FB0122810A
:1019C000222349F0EC010E94050DCE019F770E9471
:1019D000510D0E943A0D81E0DF91CF9108958CE086
:1019E00090E00E94CA2790E0A0E0B0E08093DE0281
:1019F0009093DF02A093E002B093E102089560911A
:101A0000DE028CE090E00C94D8270E94E3198093CA
:101A1000EA010E94F6198091DE02813071F048F0EF
:101A20008230D9F08430F9F486EE0E94DF1088E12C
:101A300018C082EE0E94590F16C080EE0E94590F06
:101A400081EE0E94590F88E10E94DF1081EE0E9412
:101A5000771080EE0E94771006C082EE0E94590F28
:101A600087E50E94DF108FE39CE90197F1F700C042
:101A7000000008958091DE02813039F040F082301C
:101A800031F0843051F488E206C08CE204C082EE6A
:101A90000E94771002C00E94DF108091EA010C942E
:101AA000F3190F931F93CF93DF938C01CCE0D0E019
:101AB000C8010C2E02C0969587950A94E2F78F70A4
:101AC0000E9411080E94DF102497CC3F8FEFD807A7
:101AD00079F7DF91CF911F910F9108950F931F9385
:101AE000CF93DF93EC018B01FB018281882319F1F5
:101AF000C33EFCE5DF07C1F050F4C13EECE5DE0774
:101B000081F0C23EFCE5DF07B1F481E010C0C43EC5
:101B10008CE5D80759F0C53EECE5DE0761F484E0BA
:101B200006C01092DE0205C082E001C083E080930F
:101B3000DE020E94FF0CB801CE01DF91CF911F9110
:101B40000F910C94D80C9093F0018093EF010895BD
:101B5000E091EF01F091F001309721F00190F081D8
:101B6000E02D099480E00895E091EF01F091F001FB
:101B7000309799F020911901222359F02091E80221
:101B800027FF07C0DC012C9111962C93119725E0BB
:101B90002C930280F381E02D09940895E091EF01E8
:101BA000F091F001309739F022E0DC012C930480B1
:101BB000F581E02D099408952091ED013091EE0119
:101BC0008217930771F09093EE018093ED01E091FD
:101BD000EF01F091F001309721F00680F781E02DC0
:101BE000099408952091EB013091EC01821793073D
:101BF00071F09093EC018093EB01E091EF01F09193
:101C0000F001309721F00084F185E02D09940895CA
:101C100085B7806885BF85B7806885BF08950895BA
:101C200008950C94100E08950C94130E0E94080E43
:101C30000E940F0E0C94110E81E008950E94811CE9
:101C40000E94D3040E94181D0C94140ECF92DF92B0
:101C5000EF92FF920F931F93CF93DF93CDB7DEB731
:101C60002B970FB6F894DEBF0FBECDBF0E940005C4
:101C70000E941C0E811111C08FEF89838A831B8201
:101C80000E948A1C8160782F9D838C8349815A81B0
:101C90006B818D810E940A0F56C082EFC82E81E0B1
:101CA000D82E00E010E0E02E802F0E946705F6019C
:101CB00041916F01F42EF82631F40F5F1F4F0E3063
:101CC000110589F7D9CF9091AE0291FF04C08B879F
:101CD0000E946D058B8520E030E04F2D50E0922F63
:101CE000BA01022E02C0759567950A94E2F760FF6B
:101CF00024C02E83EF8221E030E0690102C0CC0CC9
:101D0000DD1C9A95E2F790E08C219D21892B09F446
:101D100020E028870E948A1C8160782F9A87898713
:101D20004E815F8168858A850E940A0FF801EE5016
:101D3000FE4F8081C826C08206C02F5F3F4F2630ED
:101D4000310569F6BACF0E94AB1E1091F1010E94D5
:101D5000A80D1817A1F00E94A80D8093F1012B96F1
:101D60000FB6F894DEBF0FBECDBFDF91CF911F91AC
:101D70000F91FF90EF90DF90CF900C9422082B965C
:101D80000FB6F894DEBF0FBECDBFDF91CF911F918C
:101D90000F91FF90EF90DF90CF900895DC011196A6
:101DA0002C9111978C91682F70E041E050E001C0B8
:101DB000440F8A95EAF712968C91129730E08823A7
:101DC00029F0809110028823E9F006C0F901E05063
:101DD000FE4F90819423B1F086E0829FF001839FB3
:101DE000F00D1124E60FF71FEE0FFF1FE65EFE4F0A
:101DF000808191818D939C93F901E050FE4F808109
:101E0000482B06C0F901E050FE4F409580814823E1
:101E100040830895CF93DF93CDB7DEB72B970FB6EE
:101E2000F894DEBF0FBECDBF942F4F83252F588768
:101E300069877A878B874A855B85452B21F02F3F01
:101E400009F59F3FF9F4DE01119686E0FD0111923C
:101E50008A95E9F785E0FE01379601900D928A9503
:101E6000E1F749815A816B817C818D819E810E943D
:101E7000D4162B960FB6F894DEBF0FBECDBFDF9100
:101E8000CF910895CE0107960E94CE0EDCCFFC01C3
:101E9000808191810E94A11992959F70963041F4A2
:101EA0008091100291E089278093100290930F0295
:101EB0000895882309F41AC18238C1F40E94A80D3C
:101EC00081FD14C169E380910801909109010E948C
:101ED000DD1B0E94481A2FEF81EE94E021508040D4
:101EE0009040E1F700C0000069E319C08338F9F4BD
:101EF0000E94A80D80FDFAC063E5809108019091D1
:101F000009010E94DD1B0E94481A2FEF81EE94E028
:101F1000215080409040E1F700C0000063E58091CF
:101F20000801909109010E94E81B0C94481A84381A
:101F3000C1F40E94A80D82FDD9C067E48091080118
:101F4000909109010E94DD1B0E94481A2FEF81EE3B
:101F500094E0215080409040E1F700C0000067E429
:101F6000DECF9CEF980F913A40F4682F80910801E2
:101F7000909109010E94DD1BD8CF90E2980F983014
:101F800050F4877091E001C0990F8A95EAF7892F84
:101F90000E94E619CACF9BE5980F933070F4853AFA
:101FA00029F0863A31F083E890E005C081E890E0BE
:101FB00002C082E890E00C94DC0D98E5980F973110
:101FC00008F08EC0883A09F445C0893A09F445C042
:101FD0008A3A09F445C08B3A09F445C08C3A09F4B1
:101FE00045C08B3B09F445C08C3B09F445C08D3A94
:101FF00009F445C0803B09F445C08E3A09F445C058
:102000008F3A09F445C0813B09F445C0823B09F48D
:1020100045C0833B09F445C0843B09F445C0853B7A
:1020200009F445C0863B09F445C0873B09F445C027
:10203000883B09F445C0893B09F445C08D3B09F450
:1020400045C08E3B09F445C08A3B09F445C080E099
:1020500090E044C082EE90E041C089EE90E03EC046
:102060008AEE90E03BC085EB90E038C086EB90E0D4
:1020700035C083EB90E032C084EB90E02FC087EB5B
:1020800090E02CC08CEC90E029C08DEC90E026C054
:1020900083E891E023C08AE891E020C082E991E0E2
:1020A0001DC084E991E01AC081E292E017C083E28A
:1020B00092E014C084E292E011C085E292E00EC08A
:1020C00086E292E00BC087E292E008C08FE690E0E3
:1020D00005C080E790E002C08AE292E00C94F20D25
:1020E000803F20F00E94B31D0C94A01E0895882309
:1020F00009F464C0823879F40E94A80D81FF5EC0A3
:1021000069E380910801909109010E94DD1B0E9402
:10211000481A69E310C08338B1F40E94A80D80FF0B
:102120004DC063E580910801909109010E94DD1B7B
:102130000E94481A63E580910801909109010E946C
:10214000E81B0C94481A843879F40E94A80D82FF89
:1021500035C067E480910801909109010E94DD1B60
:102160000E94481A67E4E7CF9CEF980F913A10F469
:10217000682FE1CF90E2980F983050F4877091E08B
:1021800001C0990F8A95EAF7892F0E94EC19D9CFDF
:102190009BE5980F933020F480E090E00C94DC0DE8
:1021A00098E5980F973120F480E090E00C94F20DC0
:1021B000803F20F00E941B1E0C94A01E0895CF9318
:1021C000C82F0E94590F8C2FCF910C947710882321
:1021D00021F00E94E6190C94481A0895882321F0F2
:1021E0000E94EC190C94481A08954F925F926F92D6
:1021F0007F92BF92CF92DF92EF92FF920F931F9345
:10220000CF93DF937C01D62FC72FFC010581029568
:102210000F70128111110E94061A0E94DC19882386
:1022200079F0112369F080E28D0F883048F082E068
:102230000E94931A0E94DC1991E0B82EB92601C0C1
:10224000B12CCC2EC2948FE0C822D12CF601EA58D2
:10225000FF4F0C9497268C2F807FCF70882311F02E
:10226000C295C07F112399F0CC2309F4F5C180E217
:102270008D0F883010F0D11104C08C2F0E94E61908
:1022800003C08C2F0E94F9190E94481AE5C18D2FB6
:102290000E947710CC2309F45CC280E28D0F883055
:1022A00010F0D11104C08C2F0E94EC1903C08C2FA8
:1022B0000E94FF190E94481A4CC28C2F807FCF7059
:1022C000803211F0C295C07FDD2319F0D13059F171
:1022D00033C01123B1F0002381F0013031F40E94AA
:1022E000191A8C2B0E94351A34C2023031F40E9424
:1022F0003E1A8C2F0E941F1A23C00E94191A8C2B81
:1023000049C1002369F0013041F40E94E3198C2394
:1023100009F41FC20E94281A03C0023009F419C22E
:102320000E943E1A11C0112321F0023008F011C2A0
:1023300007C001110EC208C0112321F001118CC188
:102340008C2F28C101119AC18C2F2AC18C2F869500
:102350008695837090E0009719F0019761F0F9C1BC
:10236000112321F08D2F9C2F937002C080E090E00C
:102370000E94DC0DFEC1112321F08D2F9C2F937044
:1023800002C080E090E00E94F20DF3C11123F9F049
:10239000D53F51F0D63F71F0D43FA9F48091E202CD
:1023A0009091E30281600BC08091E2029091E30280
:1023B000826005C08091E2029091E3028460909374
:1023C000E3028093E2028D2F0E94B31D1EC0D53F11
:1023D00051F0D63F71F0D43FA9F48091E202909180
:1023E000E3028E7F0BC08091E2029091E3028D7F29
:1023F00005C08091E2029091E3028B7F9093E3020B
:102400008093E2028D2F0E941B1E0E94A01EB1C16C
:102410008C2F837009F050C01111A7C18D2F8295A8
:1024200086958770880F880F9D2F9F70492E512C9D
:10243000612C712C082E04C0440C551C661C771CA2
:102440000A94D2F7D4FF14C00FE010E020E030E08F
:10245000B901A80104C0440F551F661F771F8A9554
:10246000D2F7CB01BA01609570958095909503C025
:1024700060E070E0CB01C695C695C370D0E0C23075
:10248000D10561F0C330D10581F064297529862911
:102490009729219771F00E94191867C1642975293D
:1024A000862997290E942B1860C10E941918C30120
:1024B000B2010E94071859C1112319F08C2F8170A5
:1024C00001C08695882309F450C18D2F8295869589
:1024D0008770880F880F9D2F9F70492E512C612C7B
:1024E000712C082E04C0440C551C661C771C0A94E1
:1024F000D2F7D4FF14C00FE010E020E030E0B901C3
:10250000A80104C0440F551F661F771F8A95D2F794
:10251000CB01BA01609570958095909503C060E0FD
:1025200070E0CB01C695C695C3704C2F50E0423089
:10253000510569F04330510589F0642975298629D0
:1025400097294130510571F00E94DE180EC16429AF
:102550007529862997290E94F01807C10E94DE1864
:10256000C301B2010E94CC1800C18D2F90E0FC0184
:10257000E05EF109E531F10508F069C0EA57FF4F67
:102580000C949726DF708C2F8F71112331F00E94ED
:1025900065188D2F0E94E710DCC00E9486188D2FD1
:1025A0000E94EE10D6C0112339F00111D2C08C2F39
:1025B0008F710E94AB18CDC0023008F0CAC0F7CFAF
:1025C000112339F08C2F8F710E946518C2C011231E
:1025D000C9F38C2F8F710E948618BBC0112329F07C
:1025E0008C2F8F710E945018B4C00E944B18B1C03C
:1025F0001123C9F00E94CF190E94EC190E94D8192A
:10260000843039F40E948E1A8C2F8F710E948618A4
:10261000D0C0023008F0CDC0CF718C2F0E94651859
:1026200063E08C2F0DC00E94CF190E94E619023082
:1026300050F00E948E1A0E94281A64E08C2F8F712D
:102640000E947E1AB6C081E00E94931AB2C0112384
:1026500039F0002309F4B6CF8D2F0E94590F79C0AD
:10266000002309F4B6CFD93349F45FEF67EE73E086
:10267000515060407040E1F700C000008D2F0E9473
:10268000771067C04C2F4F706D2FC7010E9409074C
:102690000E9478176EC0D23FB1F028F4D03F49F0C5
:1026A000D13FF9F028C0D43FB9F058F0D53F71F0D0
:1026B00022C0112309F447C09091100281E08927BC
:1026C00008C081E01827109310023DC011113BC0D3
:1026D00081E08093100237C0111135C010921002B2
:1026E00032C0112329F080910F02882329F329C0D9
:1026F000002311F328C080910F020023C1F088232A
:1027000041F09091100281E089278093100210928D
:102710000F028D2F112319F00E94590F14C00E942F
:10272000771086E0F70111928A95E9F70CC08823AB
:1027300051F0111108C09091100281E08927809317
:10274000100210920F024C2F4F706D2FC7010E9484
:10275000AB09F8E0CF16D10441F05CF04AE0C41AAE
:10276000D10852E0C516D10420F40E94A80D0E94A1
:102770002208BB2001F10E94D81980FD1CC0F7017E
:1027800012820E94D2190E946518C7010E94E913A3
:102790000E94D219DF91CF911F910F91FF90EF907E
:1027A000DF90CF90BF907F906F905F904F900C9490
:1027B0008618B12CDACFDF91CF911F910F91FF9046
:1027C000EF90DF90CF90BF907F906F905F904F9091
:1027D00008950F931F93CF93DF93EC018881998124
:1027E0002B813C81232BB9F09F3F11F48F3F99F04F
:1027F000CE010E943408882371F0688179818A8132
:102800000E94AC198C010E9402190E940418B801A0
:10281000CE010E94F510DF91CF911F910F91089585
:102820000E94061A0E94161A0E94481A0E94391F16
:102830000E94A01E80E090E00E94DC0D80E090E00D
:102840000C94F20D80910801909109010E94F31BF4
:102850000C9410140E94F6190C942214E92FE2959E
:10286000EF70F0E03297EE30F105B0F4E556FF4F2F
:102870000C949726803F91F018F4803E68F40EC0C7
:10288000843F51F40BC0803E48F0813F29F406C0DC
:1028900093FB882780F9089580E0089581E00895EA
:1028A0000E94A1190E942E140895CF93DF9300D0A7
:1028B00000D01F92CDB7DEB70F900F900F900F9002
:1028C0000F90DF91CF910895CF93DF9300D000D088
:1028D00000D0CDB7DEB726960FB6F894DEBF0FBE98
:1028E000CDBFDF91CF9108951F93CF93DF93C09118
:1028F000110216E080911202C81799F0D0E01C9FD7
:10290000F0011D9FF00D1124ED5EFD4F40815181BE
:1029100062817381848195810E9464142196C770BD
:10292000E9CFDF91CF911F910895409143025091DB
:102930004402609145027091460280914702909155
:1029400048020C9464148091480282958F7009F0BB
:1029500054C080914502882309F44FC08091110230
:10296000A09112026091430270914402409146028C
:1029700050914702B6E08A1709F43FC090E0411534
:102980005105C1F17F3F11F46F3FA1F1B89FF001F4
:10299000B99FF00D1124ED5EFD4F218172132AC005
:1029A0002081621327C02281211124C02381348118
:1029B0002417350710F421503109241B350B283C0E
:1029C0003105C0F4209148022F7020612093480205
:1029D00026E0289FF001299FF00D1124E85EFD4FAD
:1029E00080818F708061808383E492E00E94E9138C
:1029F0000C94741401968770BECF0895CF92DF9225
:102A0000EF92FF920F931F93CF93DF93CDB7DEB773
:102A100062970FB6F894DEBF0FBECDBF8C0185E084
:102A2000F801DE011D9601900D928A95E1F7D8011B
:102A30004C9111965C91119712966C911297139686
:102A4000CD90DC90149730914302709144028091B4
:102A5000460290914702009709F46BC17F3F19F439
:102A60003F3F09F466C1E0904502EE2009F4C0C082
:102A700020914802C816D90628F0F601E81BF90B88
:102A8000CF0104C0809590958C0D9D1DFF24F3947B
:102A9000883C910578F0F12C207F09F0C6C07C2D90
:102AA000D98AC88A89890E94551483E492E00E94D9
:102AB000E913B1C0822F807F09F046C0751314C09E
:102AC000341312C0611110C02F702061209348028E
:102AD0000E94951483E492E00E94E91380914802D9
:102AE000D80115968C932EC0CD2819F15F3F11F4B3
:102AF0004F3FF9F0F62E61111CC080911102209118
:102B0000120236E0821709F45AC090E0389FF001B3
:102B1000399FF00D1124ED5EFD4F7181571306C0F2
:102B20007081471303C07281711103C001968770D1
:102B3000E9CFF62E662309F427C18091480281600F
:102B400080934802F12C20C1751308C0341306C0CD
:102B5000611104C080914802D801C3C04D875E87CF
:102B60008D859E856A8B0E9450146A898823E1F1C5
:102B70006623D1F120914802822F82958F7090E0D8
:102B8000029774F0809143029091440298878F835A
:102B90001986DB86CA862C87CE0107960E94E91328
:102BA00086E0F801A3E4B2E001900D928A95E1F786
:102BB0000E94A3140E949514FF24F394E5C04D874E
:102BC0005E878D859E850E94A119292F22952F70E1
:102BD00030E0223031050CF0CBC09F7009F0C5C049
:102BE000805E883008F4D0C0C8010E94E913E4CFA9
:102BF000C816D90608F453C0F601E81BF90BCF013B
:102C0000883C910508F450C0F12C7C2DD98AC88AE3
:102C100089890E945514E3E4F2E086E0DF011D9209
:102C20008A95E9F70E949514AFC0751314C0341348
:102C300012C0611110C080914802F8018583C8015B
:102C40000E94E91386E0E3E4F2E0DF011D928A9539
:102C5000E9F7FE2C99C04D875E878D859E856A8B2E
:102C60000E9450146A89882309F4BECF662309F4B0
:102C7000BBCF20914802822F82958F7090E00297FF
:102C80000CF48ECF80914302909144029A83898301
:102C90001B82DD82CC822E83CE0101967FCF809570
:102CA00090958C0D9D1DACCFF62E662309F49CCF1C
:102CB00075132EC034132CC02091480220FD1FC074
:102CC000822F82958F70D9F0D80115962C93159785
:102CD0008F3049F08F5F982F9295907F822F8F7061
:102CE000892B15968C93C8010E94E91386E0F801A0
:102CF000A3E4B2E001900D928A95E1F793CF86E0CC
:102D0000F801A3E4B2E001900D928A95E1F73CC08E
:102D10004D875E878D859E850E945014811140CF1E
:102D200080914802816080934802C8010E94E913A3
:102D30002BC0662309F458CF4D875E878D859E850D
:102D40000E945014F82E882309F44ECF86E0F80133
:102D5000A3E4B2E001900D928A95E1F783E492E05A
:102D60000E94470F0E94A3145DCF811139CF0CC080
:102D7000243031050CF038CF9F7009F431CFF801C1
:102D80009581907F09F02CCF8F2D62960FB6F89425
:102D9000DEBF0FBECDBFDF91CF911F910F91FF908E
:102DA000EF90DF90CF9008951F93CF93DF93CDB72F
:102DB000DEB72C970FB6F894DEBF0FBECDBF4F83A2
:102DC000588769877A878B879C87CE0107960E94F0
:102DD000FE14882369F08F8198852A853B85232BF3
:102DE000F1F19F3F09F063C08F3F09F060C037C029
:102DF00086E0FE013796DE01119601900D928A95CC
:102E0000E1F76F817885EA85FB85309741F17F3F57
:102E100011F46F3F21F12091120230E0C9010196B7
:102E2000877099274091110250E08417950709F4A3
:102E300047C069837A83FD83EC8396E0929FD0013B
:102E4000939FB00D1124AD5EBD4FFE0131960190F0
:102E50000D929A95E1F7809312020E94741416E085
:102E600080911102909112028917C1F1189FC0013F
:102E700011248D5E9D4F0E94FE14882379F1E0910C
:102E800011021E9FF0011124ED5EFD4F4081518122
:102E900062817381848195810E9464148091110202
:102EA00090E001968770992780931102D9CF4F81C6
:102EB000588569857A858B859C850E946414CFCF5F
:102EC0000E942A141092120210921102E3E4F2E01E
:102ED00086E0DF011D928A95E9F7C1CF2C960FB6E7
:102EE000F894DEBF0FBECDBFDF91CF911F91089543
:102EF000EF92FF920F931F93CF93DF938C01892B57
:102F000009F46CC0F12CEE24E394E8012196F80159
:102F10008491843740F4843008F051C0813081F0CE
:102F2000823019F15BC0853709F444C0A8F19CE7F1
:102F3000980F903708F052C08F770E94771041C0E9
:102F40000E5F1F4FFE01C49180E28C0F883048F461
:102F5000C7708E2D01C0880FCA95EAF70E94091A22
:102F600014C08C2F0E94590F2DC00E5F1F4FFE0101
:102F7000C49180E28C0F883058F4C7708E2D01C048
:102F8000880FCA95EAF70E940F1A0E94481A1AC0C1
:102F90008C2F0E94771016C00E5F1F4FFE01C49148
:102FA000CC2381F08FE99FE00197F1F700C000008A
:102FB000C150F6CF0E5F1F4FFE01F49003C00E9478
:102FC000590F8E018F2D882309F49FCFEFE9FFE081
:102FD0003197F1F700C000008150F5CFDF91CF911C
:102FE0001F910F91FF90EF90089508950C94F5179D
:102FF0000E94F61760938402709385028093860284
:10300000909387020C94101408950C94F8170F9362
:103010001F930091840210918502209186023091C5
:103020008702602B712B822B932B1F910F910C9495
:10303000F8170F931F93009184021091850220913D
:1030400086023091870260237123822393231F918C
:103050000F910C94F8170F931F9300918402109115
:10306000850220918602309187026027712782278E
:1030700093271F910F910C94F8170C9423070E942B
:103080003D18609380027093810280938202909336
:1030900083020C94101460E070E0CB010C943F1894
:1030A0000F931F9341E050E060E070E08A019B01C4
:1030B00004C0000F111F221F331F8A95D2F7C901C8
:1030C000B8011F910F910C943F180F931F9341E08B
:1030D00050E060E070E004C0440F551F661F771F8A
:1030E0008A95D2F78091800290918102A09182020C
:1030F000B09183028A019B01082B192B2A2B3B2BB1
:10310000C901B8011F910F910C943F180F931F93A1
:1031100041E050E060E070E004C0440F551F661FBE
:10312000771F8A95D2F7409550956095709580915C
:10313000800290918102A0918202B09183028A0163
:103140009B01082319232A233B23C901B8011F919E
:103150000F910C943F180F931F9341E050E060E0F3
:1031600070E004C0440F551F661F771F8A95D2F781
:103170008091800290918102A0918202B09183029D
:103180008A019B01082719272A273B27C901B80173
:103190001F910F910C943F180F931F930091800281
:1031A000109181022091820230918302602B712B59
:1031B000822B932B1F910F910C943F180F931F9309
:1031C000009180021091810220918202309183024D
:1031D00060237123822393231F910F910C943F1836
:1031E0000F931F930091800210918102209182021F
:1031F0003091830260277127822793271F910F91B7
:103200000C943F180895292F220F920F990F890FC0
:10321000A82FA695A695A695877051E001C0550FD9
:103220008A95EAF785E0A89FD001112420E030E0DC
:1032300070E0F901EA0FFB1FE75BFD4F4081CB0116
:10324000022E02C0969587950A94E2F7817099271D
:10325000819584278523842780832F5F3F4F2530E6
:10326000310539F70895292F220F920F990F890FF1
:10327000682F669566956695982F977085E0689F8C
:10328000B001112440E050E080E0FA01E60FF71FA2
:10329000E75BFD4F208130E0092E02C0369527956F
:1032A0000A94E2F721703327042E01C0220F0A94FA
:1032B000EAF7822B4F5F5F4F4530510531F7089594
:1032C000BF92CF92DF92EF92FF920F931F93CF9313
:1032D000DF938C01C0908402D0908502E09086023A
:1032E000F09087028091800290918102A0918202E9
:1032F000B0918302C82AD92AEA2AFB2ACFE1D0E07A
:10330000D701C6010C2E04C0B695A7959795879551
:103310000A94D2F780FF07C0BC2EB8018C2F0E9400
:10332000C609019719F4219758F7B12C8B2DDF911D
:10333000CF911F910F91FF90EF90DF90CF90BF90B2
:103340000895CF93DF93EC010E946019BE010E94A3
:10335000C609DF91CF9108951F93CF93DF93EB01BF
:1033600090910E02992321F0CB010E94A11913C064
:10337000882349F0CB010E946019182F682FCE01D5
:103380000E94031904C0CB010E943319182FBE01FB
:10339000812F0E94C609DF91CF911F9108958091DE
:1033A000890208958091880285958595859508956F
:1033B000809188028770089590918802977081E0CB
:1033C00009F480E008958091AD0208959091AD02D6
:1033D000892B8093AD02089580959091AD02892349
:1033E0008093AD0208958093AD0208951092AD02CE
:1033F00008959091AC02892B8093AC02089580953A
:103400009091AC0289238093AC0208951092AC0293
:1034100008959091AB02892B8093AB02089580951B
:103420009091AB0289238093AB0208951092AB0276
:10343000089580918A02089508950C941C1A909121
:103440008902891721F0809389020C941D1A08952E
:1034500080918902882329F01092890280E00C94DF
:103460001D1A089508950C94321A90918A029817A3
:1034700021F080938A020C94331A089580918A0275
:10348000882329F010928A0280E00C94331A089560
:10349000E0910801F09109018091AD028083E091F3
:1034A0000801F091090190818091AC02892B808301
:1034B000E0910801F091090190818091AB02892B84
:1034C000808380918A02882381F0E0910801F09145
:1034D00009019081892B80838091080190910901D5
:1034E0000E94781B81110E943E1A809108019091E0
:1034F00009010C94B40D08950C947B1A98E0899FEF
:1035000090011124262B209388020E946518809137
:1035100088028595859585950C947C1A1092880271
:1035200080E00C947C1A20918802809582238093FD
:103530008802982F977079F430E0482F082E000CFD
:10354000550B2417350739F08595859585950E948B
:1035500086180C948E1A0895CF92DF92EF92FF9204
:103560006C01EE24FF24C114D104E104F10421F024
:10357000C701B60120E101C020E0C72ED82EE92EF8
:10358000FF24C114D104E104F10419F0285FC7013C
:10359000B6016B017C0154E0F694E794D794C7948C
:1035A0005A95D1F7C114D104E104F10419F02C5F4C
:1035B000C701B6016B017C0142E0F694E794D79411
:1035C000C7944A95D1F7C114D104E104F10419F06C
:1035D0002E5FC701B601DC01CB01B695A795979583
:1035E0008795892B8A2B8B2B09F02F5F822FFF90D9
:1035F000EF90DF90CF90089580E090E00E94D22776
:1036000021E08D3E9E4F09F020E0822F089582E058
:1036100090E00C94CA2783E090E00C94CA2784E0E1
:1036200090E00C94CA27682F84E090E00C94D8278F
:10363000AB01BC018FE090E00C94EA27AB01BC0128
:1036400083E190E00C94EA2760E070E0CB010C94F9
:103650001E1B60E070E0CB010E94181B0C94241B21
:103660006DEE7EEF80E090E00E94F62760E082E061
:1036700090E00E94D82760E083E090E00E94D82785
:103680001092840210928502109286021092870294
:1036900060E084E090E00E94D82760E085E090E060
:1036A0000E94D82760E086E090E00E94D8276FEF64
:1036B00087E090E00E94D82740E050E0BA0188E01F
:1036C00090E00E94EA2760E08DE090E00E94D82719
:1036D00040E050E0BA0188E190E00E94EA2760E013
:1036E00087E190E00E94D8270C94291B0C94301B92
:1036F000FC01329680911901882331F08091E80213
:1037000087FF02C09EE101C096E080E0915028F062
:1037100021912223D9F38F5FF9CF08959C01FC01F9
:1037200032969FEF80E04191461789F09F3F19F450
:10373000411101C0982F8F5F8630A9F79F3F39F064
:10374000F901E90FF11D97FDFA9562830895089537
:10375000FC01329608962081261301C01082319612
:10376000E817F907C1F70895262F2695269526957F
:103770002E3168F4FC01E20FF11D677021E030E0AA
:1037800001C0220F6A95EAF78281282B22830895CF
:10379000262F2695269526952E3170F4FC01E20FF2
:1037A000F11D677021E030E001C0220F6A95EAF751
:1037B00020958281282322830895209119012223B4
:1037C00029F02091E80227FD0C94B41B0C948E1B69
:1037D00020911901222329F02091E80227FD0C9461
:1037E000C81B0C94A81B20911901FC0132962223BE
:1037F00031F08091E80287FF02C08EE101C086E0CF
:10380000DF011D928A95E9F7089508950C94051C2F
:103810000E94061C8091EE02843049F11092AF02A2
:1038200020E488E190E00FB6F894A89580936000BA
:103830000FBE2093600080E00E9422080E94061CB8
:1038400083B7817F846083BF83B7816083BF7894AF
:10385000889583B78E7F83BF0FB6F894A895809123
:103860006000886180936000109260000FBE089530
:103870000895CF930E94ED040E9400050E94381C19
:10388000C0E08C2F0E946705811104C0CF5FCE304D
:10389000C1F701C081E0CF91089508950C944D1CAB
:1038A0000E942A140E94A80D0E9422080C944E1C0B
:1038B0001F920F920FB60F9211248F939F93AF9385
:1038C000BF938091AF02811113C08091E402909167
:1038D000E502A091E602B091E7024196A11DB11D5B
:1038E0008093E4029093E502A093E602B093E7028E
:1038F000BF91AF919F918F910F900FBE0F901F902E
:10390000189582E084BD93E095BD9AEF97BD8093B2
:103910006E0008952FB7F8948091E4029091E5022B
:10392000A091E602B091E7022FBF0895CF92DF92F7
:10393000EF92FF920F931F932FB7F8944091E402F8
:103940005091E5026091E6027091E7022FBF6A0193
:103950007B01EE24FF248C0120E030E0C016D1066C
:10396000E206F30610F4415051099A01281B390B65
:10397000C9011F910F91FF90EF90DF90CF900895B4
:1039800078941F920F920FB60F9211248F939F93EA
:10399000AF93BF938091E4029091E502A091E6027B
:1039A000B091E7020196A11DB11D8093E4029093AE
:1039B000E502A093E602B093E702BF91AF919F9119
:1039C0008F910F900FBE0F901F901895F89481E083
:1039D0008093E00080E28093D800E9ECF0E0108270
:1039E0008FE19EE40197F1F700C000001DBA10922C
:1039F00068001CBC10BE1FBA10927A0010926E00B4
:103A000010926F0010927100109272001082ECEB15
:103A1000F0E0108214B817B81AB81DB810BA1082A6
:103A200015B818B81BB81EB811BA0C94003F089509
:103A30000E94FC1A811102C00E94761B0E94071B83
:103A40008093AE020E940F1B90E09093E902809356
:103A5000E8020E940B1B682F70E080E090E00C945D
:103A600005188091B40280FF0BC060910D0185E0C4
:103A7000689FB001112475956795759567952BC062
:103A800081FF09C060910D0185E0689FB00111249C
:103A90007595679520C082FF07C060910D0185E094
:103AA000689FB001112417C09091B3029923D1F0FF
:103AB00060910C01961788F720910D0185E0289FF1
:103AC00090011124929FA001939F500D112470E04A
:103AD000CA010E9483266038710540F461157105A2
:103AE00039F002C065E070E0862F08958FE70895F1
:103AF00081E008958091B40280FF08C060910B01BD
:103B000070E0759567957595679521C081FF06C032
:103B100060910B0170E07595679519C082FF04C034
:103B200060910B0170E010C09091B3029923C1F035
:103B300060910A019617A0F780910B01899FC0013F
:103B4000112470E00E9483266038710528F4611505
:103B5000710521F0862F08958FE7089581E008957B
:103B600061E070E0F4CF803F21F40E94311D819527
:103B700004C0813F29F40E94311D8093B80208954A
:103B8000823F21F40E94311D819504C0833F29F4B6
:103B90000E94311D8093B7020895893F19F40E9455
:103BA0007A1D05C08A3F31F40E947A1D8195809369
:103BB000B90208958B3F21F40E947A1D819504C0BB
:103BC0008C3F29F40E947A1D8093BA020895843FA5
:103BD00021F48091B602816017C0853F21F4809165
:103BE000B602826011C0863F21F48091B6028460E3
:103BF0000BC0873F21F48091B602886005C0883FE2
:103C000031F48091B60280618093B60208958D3FB1
:103C100021F48091B40281600BC08E3F21F4809129
:103C2000B402826005C08F3F29F48091B4028460A1
:103C30008093B4020895803F39F48091B80287FFE1
:103C40006CC01092B80269C0813F29F48091B8021B
:103C50001816BCF362C09091B702823F29F497FF17
:103C60005CC01092B70259C0833F19F41916CCF307
:103C700054C0893F41F48091B90218160CF04DC030
:103C80001092B9024AC08A3F29F48091B90287FF95
:103C900044C0F6CF8B3F39F48091BA0287FF3DC014
:103CA0001092BA023AC08C3F29F48091BA021816D9
:103CB000BCF333C0843F21F48091B6028E7F17C0DD
:103CC000853F21F48091B6028D7F11C0863F21F49B
:103CD0008091B6028B7F0BC0873F21F48091B602A2
:103CE000877F05C0883F31F48091B6028F7E809334
:103CF000B60213C08D3F21F48091B4028E7F0BC0B9
:103D00008E3F21F48091B4028D7F05C08F3F29F44E
:103D10008091B4028B7F8093B4028091B7028111AD
:103D20000EC08091B80281110AC08091B902811140
:103D300006C08091BA02811102C01092B3020895A8
:103D400085EB92E00E94CE0D0E948A1C9093B202F5
:103D50008093B10208951F93CF93DF938091B102B6
:103D60009091B2020E94961CAC019091B3029923EB
:103D700021F020910E0130E006C02091B0028AE0CF
:103D8000289F900111244217530708F46EC08091B8
:103D9000B702C091B802D091B9021091BA02811154
:103DA00007C0C1115EC0D1115CC011115AC05DC005
:103DB0009F3F19F09F5F9093B302181624F40E945E
:103DC000311D8093B7028091B70287FF05C00E9422
:103DD000311D81958093B7021C1624F40E94311D79
:103DE0008093B8028091B80287FF05C00E94311D00
:103DF00081958093B8024091B702442379F03091C5
:103E0000B802332359F025EB4203A001112450934B
:103E1000B7023203C00111249093B8021D1624F496
:103E20000E947A1D8093B9028091B90287FF05C074
:103E30000E947A1D81958093B902111624F40E9484
:103E40007A1D8093BA028091BA0287FF05C00E9452
:103E50007A1D81958093BA02DF91CF911F910C94C6
:103E6000A01E9F3F09F0A6CFAECFDF91CF911F914B
:103E70000895E5EBF2E086E0DF011D928A95E9F70F
:103E80001092B3021092B40208958091DB0208955B
:103E90000F931F93CF93DF9300D01F92CDB7DEB760
:103EA0008C010E94B621823011F0843021F584E02B
:103EB00089831B830A8382E08093E9008FEF9091CE
:103EC000E800815095FD06C095ED9A95F1F7000048
:103ED0008111F5CF8091E80085FF0DC040E050E0F2
:103EE00063E070E0CE0101960E94D3218091E8004A
:103EF0008E778093E8000F900F900F90DF91CF9115
:103F00001F910F910895CF93DF9300D01F92CDB7EB
:103F1000DEB72091EE02243031F523E0298380586A
:103F200091099B838A8382E08093E9008FEF9091CF
:103F3000E800815095FD06C095ED9A95F1F70000D7
:103F40008111F5CF8091E80085FF0DC040E050E081
:103F500063E070E0CE0101960E94D3218091E800D9
:103F60008E778093E8000F900F900F90DF91CF91A4
:103F70000895CF93DF93EC010E94B621823011F0B7
:103F80008430F9F482E08093E9009FEF8091E800AB
:103F9000915085FD06C085ED8A95F1F700009111DD
:103FA000F5CF8091E80085FF0CC040E050E066E06E
:103FB00070E0CE010E94D3218091E8008E7780933B
:103FC000E800DF91CF910895CF93DF93EC010E9439
:103FD000B621823011F08430D9F5809119018823FF
:103FE00039F08091E80287FF03C060E282E002C0FE
:103FF00068E081E08093E9008FEF9091E8008150C4
:1040000095FD06C095ED9A95F1F700008111F5CF69
:104010008091E80085FF1CC080911901811105C0C5
:1040200040E050E068E070E003C070E040E050E045
:10403000CE010E94D3218091E8008E778093E80022
:1040400080E2FE01ABEBB2E001900D928A95E1F7C0
:10405000DF91CF9108958091ED02811109C00E94F6
:1040600068230E94C5238091E20084608093E2006F
:1040700008951092ED020895089508950C94501C2F
:1040800042E061EC81E00E94E22242E261EC82E0E7
:104090000C94E2228091F002833009F460C030F485
:1040A000813071F0823009F499C008958A3009F4A2
:1040B00085C08B3009F46BC0893009F0A7C020C0DF
:1040C0008091EF02813A09F0A1C08091E800877FDA
:1040D0008093E8008091F3029091F402892B21F4FF
:1040E00060E28BEB92E003C060E080E090E070E083
:1040F0000E941E228091E8008B778093E80008954B
:104100008091EF02813209F081C08091F302909199
:10411000F402029708F07AC08091E800877F8093CC
:10412000E8008091E80082FD05C08091EE028111D7
:10413000F8CF6CC02091F3008091F20090E0922BB8
:10414000029729F48091F1008B7F813021F48091D6
:10415000F1008093DB028091E8008B7753C080915F
:10416000EF02813A09F052C08091F3029091F4027B
:10417000892B09F04BC08091E800877F8093E8008D
:104180008091E80080FFFCCF8091190136C08091BA
:10419000EF028132D9F58091F3029091F402892BDC
:1041A000A9F58091E800877F8093E8000E9417239B
:1041B0008091F102809319010C942A148091EF02EE
:1041C000813221F58091E800877F8093E8000E948A
:1041D00017238091F2028093DC0208958091EF0210
:1041E000813AA1F48091E800877F8093E800809174
:1041F000E80080FFFCCF8091DC028093F100809189
:10420000E8008E778093E8000C941723089584B714
:10421000877F84BF0FB6F894A8958091600088616D
:1042200080936000109260000FBE80E88093610070
:10423000109261000E94160E0E9468230E94C523FE
:104240008091E20084608093E20078940E9454267A
:104250000E941E0E8FE091E00E94A30D8091EE025D
:10426000853069F40E94081C8091EC028823B1F328
:104270000E94391C882391F30E94BD21EFCF0E9438
:10428000260EECCF0C944421292F332723303105FF
:10429000C9F064F42130310581F02230310509F094
:1042A0004CC08BE390E021EA36E04BC0213231056F
:1042B00021F12232310589F140C082E190E02CEDFC
:1042C00036E03FC099278130910571F02CF4892B9D
:1042D000A1F5EDE9F6E00DC08230910541F00397BC
:1042E00061F5E7E6F6E005C0E5E8F6E002C0EDE6D8
:1042F000F6E0849190E09F0124C06115710541F0C2
:1043000061307105D1F489E090E02CEC36E019C001
:1043100089E090E023EB36E014C06115710541F0AF
:104320006130710551F480EC90E02EEE36E009C06A
:1043300080E490E02EEA37E004C080E090E020E0E6
:1043400030E0FA013183208308950895CF93C82F78
:104350000E94A521C093DD02CF9108958091EE02C5
:10436000843011F081E0089582E008958091DD02AB
:10437000811102C00C94AE21089580E189BD82E1D3
:1043800089BD09B400FEFDCF8091D8008F7D809358
:10439000D8008091E00082608093E0008091E0008E
:1043A00081FDFCCF0895CF92DF92EF92FF920F93A1
:1043B0001F93CF93DF93EC018B016A010E94362398
:1043C000811133C0C114D10439F0F601808191818B
:1043D000081B190BC80FD91FE12CF12C0115110571
:1043E00019F18091E80085FD16C08091E8008E7774
:1043F0008093E800C114D10449F0F60180819181D5
:10440000E80EF91EF182E08285E00FC00E9436239B
:10441000882321F30AC089918093F100015011098A
:10442000FFEFEF1AFF0ADACF80E0DF91CF911F9103
:104430000F91FF90EF90DF90CF9008952091F502BB
:104440003091F6022617370748F06115710539F4E7
:104450002091E8002E772093E80001C0B90140E0E8
:1044600061157105A9F12091EE02222309F443C0E0
:10447000253009F442C02091E80023FD40C020917E
:10448000E80022FD32C02091E80020FFE9CF4091F2
:10449000F3002091F20030E0342BFC01CF016115D4
:1044A000710559F02830310540F481918093F10075
:1044B000615071092F5F3F4FF1CF41E02830310546
:1044C00009F040E02091E8002E772093E800C8CF63
:1044D0004111C9CF0AC08091EE02882361F0853076
:1044E00061F08091E80083FD0AC08091E80082FFBE
:1044F000F2CF80E0089582E0089583E0089581E09E
:1045000008952091F5023091F6022617370748F0FA
:104510006115710539F42091E8002E772093E800A9
:1045200001C0B901FC0120E06115710591F1809194
:10453000EE02882309F440C0853009F43FC0809121
:10454000E80083FD3DC08091E80082FD2FC080918E
:10455000E80080FFE9CF2091F3008091F20090E025
:10456000922B6115710559F08830910540F4249122
:104570002093F1003196615071090196F2CF21E04C
:10458000089709F020E08091E8008E778093E8009A
:10459000CBCF2111CCCF0AC08091EE02882361F0ED
:1045A000853061F08091E80083FD0AC08091E800C9
:1045B00082FFF2CF80E0089582E0089583E00895BD
:1045C00081E00895982F973058F59093E900981757
:1045D00039F07091EC002091ED005091F00003C093
:1045E000242F762F50E021FF19C03091EB003E7F41
:1045F0003093EB003091ED003D7F3093ED00309132
:10460000EB0031603093EB007093EC002093ED00F1
:104610005093F0002091EE0027FF07C09F5FD3CF9B
:104620008F708093E90081E0089580E00895809183
:10463000EF0287FF11C08091E80082FD05C08091E4
:10464000EE028111F8CF11C08091E8008B770BC08A
:104650008091EE02882349F08091E80080FFF8CF36
:104660008091E8008E778093E80008952091E4001F
:104670003091E50095E64091EC00842F817040FF79
:1046800022C08091E80080FD1CC08091EE0288234A
:1046900091F0853091F08091EB0085FD10C0409144
:1046A000E4005091E5004217530729F39A01915015
:1046B00011F784E0089582E0089583E0089581E091
:1046C000089580E008954091E80042FFDECF08950C
:1046D0000E94D6230E94DE23E0EEF0E0808181601C
:1046E0008083E8EDF0E080818F77808319BCA7EDAF
:1046F000B0E08C918E7F8C9380818F7E808310922E
:10470000ED0208950F931F93CF93DF930E94D6235A
:104710000E94DE23C8EDD0E088818F77888388816E
:104720008068888388818F7D888319BC1092EE020F
:104730001092EA021092EC021092EB0200EE10E0EE
:10474000F80180818B7F808388818160888342E04B
:1047500060E080E00E94E222E1EEF0E080818E7F66
:104760008083E2EEF0E080818160808380818860D8
:104770008083F80180818E7F808388818061888337
:10478000DF91CF911F910F910895E8EDF0E08081C6
:104790008F7E8083E7EDF0E080818160808384E01C
:1047A00082BF81E08093ED020C948223E8EDF0E07B
:1047B00080818E7F80831092E20008951092DA004B
:1047C0001092E10008951F920F920FB60F921124DC
:1047D0002F933F934F935F936F937F938F939F9309
:1047E000AF93BF93EF93FF938091E10082FF0BC0E3
:1047F0008091E20082FF07C08091E1008B7F80936F
:10480000E1000E9453268091DA0080FF1FC0809152
:10481000D80080FF1BC08091DA008E7F8093DA0081
:104820008091D90080FF0DC080E189BD82E189BD02
:1048300009B400FEFDCF81E08093EE020E942B20A0
:1048400005C019BC1092EE020E9439208091E1004F
:1048500080FF19C08091E20080FF15C08091E200C6
:104860008E7F8093E2008091E20080618093E2007D
:104870008091D80080628093D80019BC85E0809335
:10488000EE020E943D208091E10084FF30C08091C3
:10489000E20084FF2CC080E189BD82E189BD09B4BA
:1048A00000FEFDCF8091D8008F7D8093D80080914D
:1048B000E1008F7E8093E1008091E2008F7E809303
:1048C000E2008091E20081608093E2008091EA0240
:1048D000882311F084E007C08091E30087FD02C0C7
:1048E00081E001C083E08093EE020E943E2080912F
:1048F000E10083FF29C08091E20083FF25C0809101
:10490000E100877F8093E10082E08093EE021092C5
:10491000EA028091E1008E7F8093E1008091E200C5
:104920008E7F8093E2008091E20080618093E200BC
:1049300042E060E080E00E94E2228091F000886026
:104940008093F0000E943C20FF91EF91BF91AF91C6
:104950009F918F917F916F915F914F913F912F9197
:104960000F900FBE0F901F9018951F920F920FB6C9
:104970000F9211242F933F934F935F936F937F93E5
:104980008F939F93AF93BF93CF93DF93EF93FF9357
:10499000C091E900CF708091EC00D82FD17080FDDC
:1049A000D0E81092E9008091F000877F8093F000BA
:1049B00078940E94F9241092E9008091F0008860B8
:1049C0008093F000CD2BCF70C093E900FF91EF9161
:1049D000DF91CF91BF91AF919F918F917F916F9117
:1049E0005F914F913F912F910F900FBE0F901F90AD
:1049F00018951F93CF93DF93CDB7DEB7AA970FB665
:104A0000F894DEBF0FBECDBFEFEEF2E088E08E0F70
:104A10009091F10091938E13FBCF0E944A208091D8
:104A2000E80083FF28C18091EF029091F002492FA6
:104A300050E04A30510508F01EC1FA01E755FF4F1A
:104A40000C949726803821F0823809F014C108C0F0
:104A50008091EB029091EC02992389F082600FC063
:104A60008091F3028F70873008F005C18093E900D0
:104A70008091EB0085FB882780F91092E9009091E6
:104A8000E800977F9093E8008093F1001092F10086
:104A9000D0C0282F2D7F09F0EEC0882319F0823076
:104AA00061F0E9C08091F102813009F0E4C09330F7
:104AB00009F080E08093EC022EC08091F102811118
:104AC0002AC08091F3028F702FEF280F263008F054
:104AD000D2C08093E9002091EB0020FF1CC09330EE
:104AE00021F48091EB00806214C09091EB00906102
:104AF0009093EB0021E030E0A90102C0440F551F64
:104B00008A95E2F74093EA001092EA008091EB0068
:104B100088608093EB001092E9008091E800877F25
:104B20008093E8000E941723A6C08111A4C01091B1
:104B3000F1021F778091E3008078812B8093E3005E
:104B40008091E800877F8093E8000E94172380917E
:104B5000E80080FFFCCF8091E30080688093E30051
:104B6000111102C082E001C083E08093EE0283C095
:104B70008058823008F07FC08091F1029091F2025B
:104B80008C3D53E0950779F583E08A838AE2898337
:104B90004FB7F894DE01139620E03EE051E2E32F98
:104BA000F0E050935700E49120FF03C0E295EF70CE
:104BB0003F5FEF708E2F90E0EA3010F0C79601C093
:104BC000C0968D939D932F5F243149F74FBF8091FD
:104BD000E800877F8093E8006AE270E0CE010196EA
:104BE0000E941E2215C06091F3027091F402AE0182
:104BF0004F5F5F4F0E944221BC01892BE1F19091F0
:104C0000E800977F9093E80089819A810E94812231
:104C10008091E8008B778093E8002DC0803859F5AB
:104C20008091E800877F8093E8008091EA0280937A
:104C3000F1008091E8008E7773CF81111CC09091B4
:104C4000F1029230C0F48091E800877F8093E80001
:104C50009093EA020E9417238091EA02811106C014
:104C60008091E30087FD02C081E001C084E0809371
:104C7000EE020E9440208091E80083FF0AC08091EC
:104C8000E800877F8093E8008091EB00806280934A
:104C9000EB00AA960FB6F894DEBF0FBECDBFDF9132
:104CA000CF911F9108950895CF938091EE028823AC
:104CB000A1F0C091E900CF709091EC00892F817034
:104CC00090FD80E8C82B1092E9008091E80083FDF8
:104CD0000E94F924CF70C093E900CF910895AA1BD8
:104CE000BB1B51E107C0AA1FBB1FA617B70710F0D7
:104CF000A61BB70B881F991F5A95A9F78095909509
:104D0000BC01CD01089597FB072E16F4009407D03F
:104D100077FD09D00E946F2607FC05D03EF49095E0
:104D200081959F4F0895709561957F4F0895EE0F7F
:104D3000FF1F0590F491E02D0994CF93DF9382300B
:104D4000910510F482E090E0E091F902F091FA020E
:104D500020E030E0C0E0D0E0309711F14081518197
:104D600048175907C0F04817590761F482819381A9
:104D7000209719F09B838A832BC09093FA0280932B
:104D8000F90226C02115310519F04217530718F40E
:104D90009A01BE01DF01EF010280F381E02DDCCF3B
:104DA0002115310509F1281B390B2430310590F408
:104DB00012968D919C9113976115710521F0FB015D
:104DC0009383828304C09093FA028093F902FD01D9
:104DD000329644C0FD01E20FF31F8193919322505C
:104DE00031092D933C933AC02091F7023091F8029B
:104DF000232B41F420910201309103013093F802FA
:104E00002093F70220910001309101012115310515
:104E100041F42DB73EB74091040150910501241B88
:104E2000350BE091F702F091F802E217F307A0F4D6
:104E30002E1B3F0B2817390778F0AC014E5F5F4FF0
:104E40002417350748F04E0F5F1F5093F802409328
:104E5000F7028193919302C0E0E0F0E0CF01DF918F
:104E6000CF9108950F931F93CF93DF93009709F489
:104E70008CC0FC013297138212820091F9021091CA
:104E8000FA020115110581F420813181820F931FEF
:104E90002091F7023091F8022817390779F5F0933D
:104EA000F802E093F70271C0D80140E050E0AE177D
:104EB000BF0750F412962D913C911397AD01211527
:104EC000310509F1D901F3CF9D01DA013383228342
:104ED00060817181860F971F8217930769F4EC0137
:104EE00028813981260F371F2E5F3F4F3183208362
:104EF0008A819B8193838283452B29F4F093FA0264
:104F0000E093F90242C01396FC93EE931297ED01E1
:104F1000499159919E01240F351FE217F30771F44F
:104F200080819181840F951F029611969C938E9398
:104F30008281938113969C938E931297E0E0F0E028
:104F4000D80112968D919C911397009719F0F80152
:104F50008C01F6CF8D919C9198012E5F3F4F820F6F
:104F6000931F2091F7023091F8022817390769F44E
:104F7000309729F41092FA021092F90202C01382BB
:104F800012821093F8020093F702DF91CF911F91E4
:104F90000F910895F999FECF92BD81BDF89A992796
:104FA00080B50895A8E1B0E042E050E00C94FE27FF
:104FB000262FF999FECF92BD81BDF89A019700B4D2
:104FC000021639F01FBA20BD0FB6F894FA9AF99A72
:104FD0000FBE08950396272F0E94D9270E94D82735
:104FE000252F0E94D927242F0C94D9270196272FEB
:104FF0000E94D9270C94D827DC01CB01FC01F99938
:10500000FECF06C0F2BDE1BDF89A319600B40D9214
:0C50100041505040B8F70895F894FFCFCD
:10501C000000FB02200020008B0228013C071445F5
:10502C001FE41FB91F831F481F01000D010D020D46
:10503C00030D040D050D000C010C020C030C040CEB
:10504C00050C000B010B020B030B040B050B000AE8
:10505C00010A020A030A040A050A000901090209E5
:10506C0003090409050900080108020803080408DB
:10507C0005080007010702070307040705070006D8
:10508C0001060206030604060506000501050205D5
:10509C0003050405050500040104020403040404CB
:1050AC0005040003010302030303040305030002C8
:1050BC0001020202030204020502000101010201C5
:1050CC0003010401050100000100020003000400BB
:0250DC000500CD
:00000001FF
